{"abi":[{"type":"constructor","inputs":[],"stateMutability":"nonpayable"},{"type":"function","name":"addWhitelist","inputs":[{"name":"_address","type":"address","internalType":"address"}],"outputs":[],"stateMutability":"nonpayable"},{"type":"function","name":"cancelOpenLimitOrder","inputs":[{"name":"_pairIndex","type":"uint256","internalType":"uint256"},{"name":"_index","type":"uint256","internalType":"uint256"}],"outputs":[],"stateMutability":"nonpayable"},{"type":"function","name":"cancelPendingMarketOrder","inputs":[{"name":"_id","type":"uint256","internalType":"uint256"}],"outputs":[],"stateMutability":"nonpayable"},{"type":"function","name":"closeTradeMarket","inputs":[{"name":"_pairIndex","type":"uint256","internalType":"uint256"},{"name":"_index","type":"uint256","internalType":"uint256"},{"name":"_amount","type":"uint256","internalType":"uint256"},{"name":"_executionFee","type":"uint256","internalType":"uint256"}],"outputs":[{"name":"orderId","type":"uint256","internalType":"uint256"}],"stateMutability":"payable"},{"type":"function","name":"executeLimitOrder","inputs":[{"name":"_orderType","type":"uint8","internalType":"enum ITradingStorage.LimitOrder"},{"name":"_trader","type":"address","internalType":"address"},{"name":"_pairIndex","type":"uint256","internalType":"uint256"},{"name":"_index","type":"uint256","internalType":"uint256"},{"name":"priceUpdateData","type":"bytes[]","internalType":"bytes[]"}],"outputs":[],"stateMutability":"payable"},{"type":"function","name":"executeMarketOrders","inputs":[{"name":"pairIndex","type":"uint256","internalType":"uint256"},{"name":"orderId","type":"uint256[]","internalType":"uint256[]"},{"name":"priceUpdateData","type":"bytes[]","internalType":"bytes[]"}],"outputs":[],"stateMutability":"payable"},{"type":"function","name":"initialize","inputs":[{"name":"_storageT","type":"address","internalType":"address"},{"name":"_pairInfos","type":"address","internalType":"address"}],"outputs":[],"stateMutability":"nonpayable"},{"type":"function","name":"isOperator","inputs":[{"name":"","type":"address","internalType":"address"}],"outputs":[{"name":"","type":"bool","internalType":"bool"}],"stateMutability":"view"},{"type":"function","name":"isWhitelisted","inputs":[],"outputs":[{"name":"","type":"bool","internalType":"bool"}],"stateMutability":"view"},{"type":"function","name":"lastUpdateTime","inputs":[{"name":"","type":"address","internalType":"address"},{"name":"","type":"uint256","internalType":"uint256"}],"outputs":[{"name":"","type":"uint256","internalType":"uint256"}],"stateMutability":"view"},{"type":"function","name":"limitOrdersTimelock","inputs":[],"outputs":[{"name":"","type":"uint256","internalType":"uint256"}],"stateMutability":"view"},{"type":"function","name":"openTrade","inputs":[{"name":"t","type":"tuple","internalType":"struct ITradingStorage.Trade","components":[{"name":"trader","type":"address","internalType":"address"},{"name":"pairIndex","type":"uint256","internalType":"uint256"},{"name":"index","type":"uint256","internalType":"uint256"},{"name":"initialPosToken","type":"uint256","internalType":"uint256"},{"name":"positionSizeUSDC","type":"uint256","internalType":"uint256"},{"name":"openPrice","type":"uint256","internalType":"uint256"},{"name":"buy","type":"bool","internalType":"bool"},{"name":"leverage","type":"uint256","internalType":"uint256"},{"name":"tp","type":"uint256","internalType":"uint256"},{"name":"sl","type":"uint256","internalType":"uint256"},{"name":"timestamp","type":"uint256","internalType":"uint256"}]},{"name":"_type","type":"uint8","internalType":"enum IExecute.OpenLimitOrderType"},{"name":"_slippageP","type":"uint256","internalType":"uint256"},{"name":"_executionFee","type":"uint256","internalType":"uint256"}],"outputs":[{"name":"orderId","type":"uint256","internalType":"uint256"}],"stateMutability":"payable"},{"type":"function","name":"operator","inputs":[],"outputs":[{"name":"","type":"address","internalType":"address"}],"stateMutability":"view"},{"type":"function","name":"pairInfos","inputs":[],"outputs":[{"name":"","type":"address","internalType":"contract IPairInfos"}],"stateMutability":"view"},{"type":"function","name":"pause","inputs":[],"outputs":[],"stateMutability":"nonpayable"},{"type":"function","name":"paused","inputs":[],"outputs":[{"name":"","type":"bool","internalType":"bool"}],"stateMutability":"view"},{"type":"function","name":"removeWhitelist","inputs":[{"name":"_address","type":"address","internalType":"address"}],"outputs":[],"stateMutability":"nonpayable"},{"type":"function","name":"setLimitOrdersTimelock","inputs":[{"name":"_blocks","type":"uint256","internalType":"uint256"}],"outputs":[],"stateMutability":"nonpayable"},{"type":"function","name":"setMarketExecFeeReciever","inputs":[{"name":"_reciever","type":"address","internalType":"address"}],"outputs":[],"stateMutability":"nonpayable"},{"type":"function","name":"storageT","inputs":[],"outputs":[{"name":"","type":"address","internalType":"contract ITradingStorage"}],"stateMutability":"view"},{"type":"function","name":"toggleWhitelist","inputs":[],"outputs":[],"stateMutability":"nonpayable"},{"type":"function","name":"unpause","inputs":[],"outputs":[],"stateMutability":"nonpayable"},{"type":"function","name":"updateMargin","inputs":[{"name":"_pairIndex","type":"uint256","internalType":"uint256"},{"name":"_index","type":"uint256","internalType":"uint256"},{"name":"_type","type":"uint8","internalType":"enum ITradingStorage.updateType"},{"name":"_amount","type":"uint256","internalType":"uint256"},{"name":"priceUpdateData","type":"bytes[]","internalType":"bytes[]"}],"outputs":[{"name":"orderId","type":"uint256","internalType":"uint256"}],"stateMutability":"payable"},{"type":"function","name":"updateOpenLimitOrder","inputs":[{"name":"_pairIndex","type":"uint256","internalType":"uint256"},{"name":"_index","type":"uint256","internalType":"uint256"},{"name":"_price","type":"uint256","internalType":"uint256"},{"name":"_slippageP","type":"uint256","internalType":"uint256"},{"name":"_tp","type":"uint256","internalType":"uint256"},{"name":"_sl","type":"uint256","internalType":"uint256"}],"outputs":[],"stateMutability":"nonpayable"},{"type":"function","name":"updateOperator","inputs":[{"name":"_operator","type":"address","internalType":"address"},{"name":"_isOperator","type":"bool","internalType":"bool"}],"outputs":[],"stateMutability":"nonpayable"},{"type":"function","name":"updateSl","inputs":[{"name":"_pairIndex","type":"uint256","internalType":"uint256"},{"name":"_index","type":"uint256","internalType":"uint256"},{"name":"_newSl","type":"uint256","internalType":"uint256"},{"name":"priceUpdateData","type":"bytes[]","internalType":"bytes[]"}],"outputs":[],"stateMutability":"payable"},{"type":"function","name":"updateTp","inputs":[{"name":"_pairIndex","type":"uint256","internalType":"uint256"},{"name":"_index","type":"uint256","internalType":"uint256"},{"name":"_newTp","type":"uint256","internalType":"uint256"}],"outputs":[],"stateMutability":"nonpayable"},{"type":"function","name":"updateTpAndSl","inputs":[{"name":"_pairIndex","type":"uint256","internalType":"uint256"},{"name":"_index","type":"uint256","internalType":"uint256"},{"name":"_newSl","type":"uint256","internalType":"uint256"},{"name":"_newTP","type":"uint256","internalType":"uint256"},{"name":"priceUpdateData","type":"bytes[]","internalType":"bytes[]"}],"outputs":[],"stateMutability":"payable"},{"type":"function","name":"whitelistedAddress","inputs":[{"name":"","type":"address","internalType":"address"}],"outputs":[{"name":"","type":"bool","internalType":"bool"}],"stateMutability":"view"},{"type":"event","name":"AddressUpdated","inputs":[{"name":"name","type":"string","indexed":false,"internalType":"string"},{"name":"a","type":"address","indexed":false,"internalType":"address"}],"anonymous":false},{"type":"event","name":"Initialized","inputs":[{"name":"version","type":"uint8","indexed":false,"internalType":"uint8"}],"anonymous":false},{"type":"event","name":"LimitOrderInitiated","inputs":[{"name":"trader","type":"address","indexed":true,"internalType":"address"},{"name":"pairIndex","type":"uint256","indexed":false,"internalType":"uint256"},{"name":"orderId","type":"uint256","indexed":false,"internalType":"uint256"},{"name":"timestamp","type":"uint256","indexed":false,"internalType":"uint256"}],"anonymous":false},{"type":"event","name":"LimitOrderSameBlock","inputs":[{"name":"trader","type":"address","indexed":true,"internalType":"address"},{"name":"pairIndex","type":"uint256","indexed":false,"internalType":"uint256"},{"name":"timestamp","type":"uint256","indexed":false,"internalType":"uint256"}],"anonymous":false},{"type":"event","name":"MarginUpdated","inputs":[{"name":"trader","type":"address","indexed":true,"internalType":"address"},{"name":"pairIndex","type":"uint256","indexed":false,"internalType":"uint256"},{"name":"index","type":"uint256","indexed":false,"internalType":"uint256"},{"name":"_type","type":"uint8","indexed":false,"internalType":"enum ITradingStorage.updateType"},{"name":"newTrade","type":"tuple","indexed":false,"internalType":"struct ITradingStorage.Trade","components":[{"name":"trader","type":"address","internalType":"address"},{"name":"pairIndex","type":"uint256","internalType":"uint256"},{"name":"index","type":"uint256","internalType":"uint256"},{"name":"initialPosToken","type":"uint256","internalType":"uint256"},{"name":"positionSizeUSDC","type":"uint256","internalType":"uint256"},{"name":"openPrice","type":"uint256","internalType":"uint256"},{"name":"buy","type":"bool","internalType":"bool"},{"name":"leverage","type":"uint256","internalType":"uint256"},{"name":"tp","type":"uint256","internalType":"uint256"},{"name":"sl","type":"uint256","internalType":"uint256"},{"name":"timestamp","type":"uint256","internalType":"uint256"}]},{"name":"marginFees","type":"uint256","indexed":false,"internalType":"uint256"},{"name":"lossProtectionTier","type":"uint256","indexed":false,"internalType":"uint256"},{"name":"timestamp","type":"uint256","indexed":false,"internalType":"uint256"}],"anonymous":false},{"type":"event","name":"MarketOrderInitiated","inputs":[{"name":"trader","type":"address","indexed":true,"internalType":"address"},{"name":"pairIndex","type":"uint256","indexed":false,"internalType":"uint256"},{"name":"open","type":"bool","indexed":false,"internalType":"bool"},{"name":"orderId","type":"uint256","indexed":false,"internalType":"uint256"},{"name":"timestamp","type":"uint256","indexed":false,"internalType":"uint256"}],"anonymous":false},{"type":"event","name":"NumberUpdated","inputs":[{"name":"name","type":"string","indexed":false,"internalType":"string"},{"name":"value","type":"uint256","indexed":false,"internalType":"uint256"}],"anonymous":false},{"type":"event","name":"OpenLimitCanceled","inputs":[{"name":"trader","type":"address","indexed":true,"internalType":"address"},{"name":"pairIndex","type":"uint256","indexed":false,"internalType":"uint256"},{"name":"index","type":"uint256","indexed":false,"internalType":"uint256"},{"name":"timestamp","type":"uint256","indexed":false,"internalType":"uint256"}],"anonymous":false},{"type":"event","name":"OpenLimitPlaced","inputs":[{"name":"trader","type":"address","indexed":true,"internalType":"address"},{"name":"pairIndex","type":"uint256","indexed":false,"internalType":"uint256"},{"name":"index","type":"uint256","indexed":false,"internalType":"uint256"},{"name":"isBuy","type":"bool","indexed":false,"internalType":"bool"},{"name":"openPrice","type":"uint256","indexed":false,"internalType":"uint256"},{"name":"executionFee","type":"uint256","indexed":false,"internalType":"uint256"},{"name":"orderType","type":"uint8","indexed":false,"internalType":"enum IExecute.OpenLimitOrderType"},{"name":"slippageP","type":"uint256","indexed":false,"internalType":"uint256"}],"anonymous":false},{"type":"event","name":"OpenLimitUpdated","inputs":[{"name":"trader","type":"address","indexed":true,"internalType":"address"},{"name":"pairIndex","type":"uint256","indexed":false,"internalType":"uint256"},{"name":"index","type":"uint256","indexed":false,"internalType":"uint256"},{"name":"newPrice","type":"uint256","indexed":false,"internalType":"uint256"},{"name":"newTp","type":"uint256","indexed":false,"internalType":"uint256"},{"name":"newSl","type":"uint256","indexed":false,"internalType":"uint256"},{"name":"timestamp","type":"uint256","indexed":false,"internalType":"uint256"}],"anonymous":false},{"type":"event","name":"OperatorUpdated","inputs":[{"name":"operator","type":"address","indexed":false,"internalType":"address"},{"name":"isOperator","type":"bool","indexed":false,"internalType":"bool"}],"anonymous":false},{"type":"event","name":"Paused","inputs":[{"name":"account","type":"address","indexed":false,"internalType":"address"}],"anonymous":false},{"type":"event","name":"SlUpdateInitiated","inputs":[{"name":"trader","type":"address","indexed":true,"internalType":"address"},{"name":"pairIndex","type":"uint256","indexed":false,"internalType":"uint256"},{"name":"index","type":"uint256","indexed":false,"internalType":"uint256"},{"name":"newSl","type":"uint256","indexed":false,"internalType":"uint256"},{"name":"orderId","type":"uint256","indexed":false,"internalType":"uint256"},{"name":"timestamp","type":"uint256","indexed":false,"internalType":"uint256"}],"anonymous":false},{"type":"event","name":"SlUpdated","inputs":[{"name":"trader","type":"address","indexed":true,"internalType":"address"},{"name":"pairIndex","type":"uint256","indexed":false,"internalType":"uint256"},{"name":"index","type":"uint256","indexed":false,"internalType":"uint256"},{"name":"newSl","type":"uint256","indexed":false,"internalType":"uint256"},{"name":"timestamp","type":"uint256","indexed":false,"internalType":"uint256"}],"anonymous":false},{"type":"event","name":"TpUpdated","inputs":[{"name":"trader","type":"address","indexed":true,"internalType":"address"},{"name":"pairIndex","type":"uint256","indexed":false,"internalType":"uint256"},{"name":"index","type":"uint256","indexed":false,"internalType":"uint256"},{"name":"newTp","type":"uint256","indexed":false,"internalType":"uint256"},{"name":"timestamp","type":"uint256","indexed":false,"internalType":"uint256"}],"anonymous":false},{"type":"event","name":"Unpaused","inputs":[{"name":"account","type":"address","indexed":false,"internalType":"address"}],"anonymous":false},{"type":"event","name":"Whitelist","inputs":[{"name":"whitelist","type":"bool","indexed":false,"internalType":"bool"}],"anonymous":false}],"bytecode":{"object":"0x60806040523480156200001157600080fd5b506200001c62000022565b620000e3565b600054610100900460ff16156200008f5760405162461bcd60e51b815260206004820152602760248201527f496e697469616c697a61626c653a20636f6e747261637420697320696e697469604482015266616c697a696e6760c81b606482015260840160405180910390fd5b60005460ff90811614620000e1576000805460ff191660ff9081179091556040519081527f7f26b83ff96e1f2b6a682f133852f6798a09c465da95921460cefb38474024989060200160405180910390a15b565b61555280620000f36000396000f3fe6080604052600436106101c25760003560e01c80637e15144b116100f7578063c5ed6a0811610095578063d8defd1511610064578063d8defd15146104e3578063e5a97c9214610503578063f556763714610516578063f80f5dd51461052957600080fd5b8063c5ed6a0814610470578063c641558e14610490578063cd90b8a4146104b0578063d4a1caa7146104c357600080fd5b8063a03074c1116100d1578063a03074c1146103fa578063b9b6573a1461040d578063c30796ab1461042d578063c383e5de1461045d57600080fd5b80637e15144b146103b05780638456cb59146103c55780639e2033f5146103da57600080fd5b8063485cc95511610164578063611b40951161013e578063611b4095146103265780636d44a3b2146103405780636d70f7ae1461036057806378c8cda71461039057600080fd5b8063485cc955146102bd578063570ca735146102dd5780635c975abb1461030257600080fd5b806315b760b1116101a057806315b760b11461026057806316fff074146102755780633f4ba83a1461029557806346f6c8f5146102aa57600080fd5b8063080b44bb146101c75780630890d22a146102125780631346b0ff14610228575b600080fd5b3480156101d357600080fd5b506101ff6101e2366004614917565b606a60209081526000928352604080842090915290825290205481565b6040519081526020015b60405180910390f35b34801561021e57600080fd5b506101ff60675481565b34801561023457600080fd5b50606654610248906001600160a01b031681565b6040516001600160a01b039091168152602001610209565b61027361026e366004614df1565b610549565b005b34801561028157600080fd5b50606554610248906001600160a01b031681565b3480156102a157600080fd5b506102736105b4565b6102736102b836600461497d565b610674565b3480156102c957600080fd5b506102736102d83660046148b0565b610dc5565b3480156102e957600080fd5b506068546102489061010090046001600160a01b031681565b34801561030e57600080fd5b5060335460ff165b6040519015158152602001610209565b34801561033257600080fd5b506068546103169060ff1681565b34801561034c57600080fd5b5061027361035b3660046148e9565b610f17565b34801561036c57600080fd5b5061031661037b366004614876565b606b6020526000908152604090205460ff1681565b34801561039c57600080fd5b506102736103ab366004614876565b611030565b3480156103bc57600080fd5b5061027361117a565b3480156103d157600080fd5b5061027361127e565b3480156103e657600080fd5b506102736103f5366004614876565b61133c565b610273610408366004614c4e565b61145f565b34801561041957600080fd5b50610273610428366004614cc8565b6115cc565b34801561043957600080fd5b50610316610448366004614876565b60696020526000908152604090205460ff1681565b61027361046b366004614d6f565b611809565b34801561047c57600080fd5b5061027361048b366004614c1c565b61185f565b34801561049c57600080fd5b506102736104ab366004614e3d565b611908565b6101ff6104be366004614cea565b611b8c565b3480156104cf57600080fd5b506102736104de366004614c1c565b612352565b3480156104ef57600080fd5b506102736104fe366004614d43565b6124a4565b6101ff610511366004614dbf565b6124f1565b6101ff610524366004614b2b565b612ad4565b34801561053557600080fd5b50610273610544366004614876565b613923565b60685460ff161561058c573360009081526069602052604090205460ff1661058c5760405162461bcd60e51b81526004016105839061502c565b60405180910390fd5b610594613a71565b61059f868685613ab7565b6105ac8686868585613d23565b505050505050565b606560009054906101000a90046001600160a01b03166001600160a01b03166312d43a516040518163ffffffff1660e01b815260040160206040518083038186803b15801561060257600080fd5b505afa158015610616573d6000803e3d6000fd5b505050506040513d601f19601f8201168201806040525081019061063a9190614893565b6001600160a01b0316336001600160a01b03161461066a5760405162461bcd60e51b81526004016105839061509f565b610672614529565b565b60685460ff16156106ae573360009081526069602052604090205460ff166106ae5760405162461bcd60e51b81526004016105839061502c565b6106b6613a71565b60038660038111156106ca576106ca6154ca565b14156108a55760655460408051633078fff560e01b815290516000926001600160a01b031691633078fff5916004808301926020929190829003018186803b15801561071557600080fd5b505afa158015610729573d6000803e3d6000fd5b505050506040513d601f19601f8201168201806040525081019061074d9190614893565b6001600160a01b03166335b03c176040518163ffffffff1660e01b815260040160206040518083038186803b15801561078557600080fd5b505afa158015610799573d6000803e3d6000fd5b505050506040513d601f19601f820116820180604052508101906107bd9190614893565b606554604051636e6f99cd60e11b81529192506001600160a01b03169063dcdf339a906107f290899089908990600401614f8d565b60206040518083038186803b15801561080a57600080fd5b505afa15801561081e573d6000803e3d6000fd5b505050506040513d601f19601f820116820180604052508101906108429190614960565b6108795760405162461bcd60e51b81526020600482015260086024820152671393d7d31253525560c21b6044820152606401610583565b506001600160a01b0385166000908152606a602090815260408083208784529091529020429055610a39565b6065546040516351d407ff60e11b81526000916001600160a01b03169063a3a80ffe906108da90899089908990600401614f8d565b6101606040518083038186803b1580156108f357600080fd5b505afa158015610907573d6000803e3d6000fd5b505050506040513d601f19601f8201168201806040525081019061092b9190614b7f565b905060008160e00151116109515760405162461bcd60e51b815260040161058390614fe2565b6001876003811115610965576109656154ca565b14158061097757506000816101200151115b6109ab5760405162461bcd60e51b81526020600482015260056024820152641393d7d4d360da1b6044820152606401610583565b60028760038111156109bf576109bf6154ca565b1415610a375760006109d082614576565b905081610120015160001480610a0057508160c001516109f7578161012001518110610a00565b81610120015181115b610a355760405162461bcd60e51b8152602060048201526006602482015265121054d7d4d360d21b6044820152606401610583565b505b505b60655460408051633078fff560e01b815290516000926001600160a01b031691633078fff5916004808301926020929190829003018186803b158015610a7e57600080fd5b505afa158015610a92573d6000803e3d6000fd5b505050506040513d601f19601f82011682018060405250810190610ab69190614893565b90506000816001600160a01b031663b21f45176040518163ffffffff1660e01b815260040160206040518083038186803b158015610af357600080fd5b505afa158015610b07573d6000803e3d6000fd5b505050506040513d601f19601f82011682018060405250810190610b2b9190614893565b905060006040518060800160405280896001600160a01b031681526020018881526020018781526020018a6003811115610b6757610b676154ca565b9052905060006001600160a01b03841663c0a027f48960038d6003811115610b9157610b916154ca565b14610b9d576003610ba0565b60025b6040518363ffffffff1660e01b8152600401610bbd92919061529b565b602060405180830381600087803b158015610bd757600080fd5b505af1158015610beb573d6000803e3d6000fd5b505050506040513d601f19601f82011682018060405250810190610c0f9190614c35565b606554604080516080810182526001600160a01b038d81168252602082018d90529181018b9052929350169063d775d54890606081018d6003811115610c5757610c576154ca565b815250836040518363ffffffff1660e01b8152600401610c78929190615159565b600060405180830381600087803b158015610c9257600080fd5b505af1158015610ca6573d6000803e3d6000fd5b505060405163308f221b60e21b81526001600160a01b038616925063c23c886c9150610cd890859033906004016151ce565b600060405180830381600087803b158015610cf257600080fd5b505af1158015610d06573d6000803e3d6000fd5b5050604080518b815260208101859052428183015290516001600160a01b038d1693507fd0ac65cbccd4e7062356a9be37735153d991bdc4de08f024a8fffc0600f7048892509081900360600190a260405163dd2f3c0560e01b81526001600160a01b0385169063dd2f3c05903490610d879085908b908b906004016151f4565b6000604051808303818588803b158015610da057600080fd5b505af1158015610db4573d6000803e3d6000fd5b505050505050505050505050505050565b600054610100900460ff1615808015610de55750600054600160ff909116105b80610dff5750303b158015610dff575060005460ff166001145b610e625760405162461bcd60e51b815260206004820152602e60248201527f496e697469616c697a61626c653a20636f6e747261637420697320616c72656160448201526d191e481a5b9a5d1a585b1a5e995960921b6064820152608401610583565b6000805460ff191660011790558015610e85576000805461ff0019166101001790555b606580546001600160a01b038086166001600160a01b0319928316179092556066805492851692909116919091179055601e6067556068805460ff19169055610ecc614646565b8015610f12576000805461ff0019169055604051600181527f7f26b83ff96e1f2b6a682f133852f6798a09c465da95921460cefb38474024989060200160405180910390a15b505050565b606560009054906101000a90046001600160a01b03166001600160a01b03166312d43a516040518163ffffffff1660e01b815260040160206040518083038186803b158015610f6557600080fd5b505afa158015610f79573d6000803e3d6000fd5b505050506040513d601f19601f82011682018060405250810190610f9d9190614893565b6001600160a01b0316336001600160a01b031614610fcd5760405162461bcd60e51b81526004016105839061509f565b6001600160a01b0382166000818152606b6020908152604091829020805460ff19168515159081179091558251938452908301527f966c160e1c4dbc7df8d69af4ace01e9297c3cf016397b7914971f2fbfa32672d910160405180910390a15050565b606560009054906101000a90046001600160a01b03166001600160a01b03166312d43a516040518163ffffffff1660e01b815260040160206040518083038186803b15801561107e57600080fd5b505afa158015611092573d6000803e3d6000fd5b505050506040513d601f19601f820116820180604052508101906110b69190614893565b6001600160a01b0316336001600160a01b0316146110e65760405162461bcd60e51b81526004016105839061509f565b6001600160a01b0381166110f957600080fd5b6001600160a01b038116600081815260696020908152604091829020805460ff191690558151828152600f928101929092526e1c995b5bdd9955da1a5d195b1a5cdd608a1b60608301528101919091527f943e9d45a11aaae5d87503e3bc248665d9807856e5cf2bdb4a988bee44422781906080015b60405180910390a150565b606560009054906101000a90046001600160a01b03166001600160a01b03166312d43a516040518163ffffffff1660e01b815260040160206040518083038186803b1580156111c857600080fd5b505afa1580156111dc573d6000803e3d6000fd5b505050506040513d601f19601f820116820180604052508101906112009190614893565b6001600160a01b0316336001600160a01b0316146112305760405162461bcd60e51b81526004016105839061509f565b6068805460ff8082161560ff1990921682179092556040519116151581527fb129566a7007764ad2d20cd94d30a9e576d12e604df8470368c973f8759e9b31906020015b60405180910390a1565b606560009054906101000a90046001600160a01b03166001600160a01b03166312d43a516040518163ffffffff1660e01b815260040160206040518083038186803b1580156112cc57600080fd5b505afa1580156112e0573d6000803e3d6000fd5b505050506040513d601f19601f820116820180604052508101906113049190614893565b6001600160a01b0316336001600160a01b0316146113345760405162461bcd60e51b81526004016105839061509f565b610672614675565b606560009054906101000a90046001600160a01b03166001600160a01b03166312d43a516040518163ffffffff1660e01b815260040160206040518083038186803b15801561138a57600080fd5b505afa15801561139e573d6000803e3d6000fd5b505050506040513d601f19601f820116820180604052508101906113c29190614893565b6001600160a01b0316336001600160a01b0316146113f25760405162461bcd60e51b81526004016105839061509f565b6001600160a01b0381166114375760405162461bcd60e51b815260206004820152600c60248201526b5a45524f5f4144445245535360a01b6044820152606401610583565b606880546001600160a01b0390921661010002610100600160a81b0319909216919091179055565b336000908152606b602052604090205460ff166114ae5760405162461bcd60e51b815260206004820152600d60248201526c27a7262cafa7a822a920aa27a960991b6044820152606401610583565b60005b838110156105ac57606560009054906101000a90046001600160a01b03166001600160a01b0316633078fff56040518163ffffffff1660e01b815260040160206040518083038186803b15801561150757600080fd5b505afa15801561151b573d6000803e3d6000fd5b505050506040513d601f19601f8201168201806040525081019061153f9190614893565b6001600160a01b031663dd2f3c0534878785818110611560576115606154e0565b9050602002013586866040518563ffffffff1660e01b8152600401611587939291906151f4565b6000604051808303818588803b1580156115a057600080fd5b505af11580156115b4573d6000803e3d6000fd5b505050505080806115c490615499565b9150506114b1565b60685460ff1615611606573360009081526069602052604090205460ff166116065760405162461bcd60e51b81526004016105839061502c565b61160e613a71565b606554604051632e21e28b60e21b81526000916001600160a01b03169063b8878a2c9061164390339087908790600401614f8d565b6101806040518083038186803b15801561165c57600080fd5b505afa158015611670573d6000803e3d6000fd5b505050506040513d601f19601f8201168201806040525081019061169491906149fd565b9050606754816101400151436116aa9190615482565b10156116c85760405162461bcd60e51b815260040161058390615004565b60655461016082015160608301516001600160a01b0390921691638b83351a91839133916116f591615429565b6040516001600160e01b031960e086901b1681526001600160a01b0393841660048201529290911660248301526044820152606401600060405180830381600087803b15801561174457600080fd5b505af1158015611758573d6000803e3d6000fd5b505060655460405163b4b0f56760e01b81526001600160a01b03909116925063b4b0f567915061179090339087908790600401614f8d565b600060405180830381600087803b1580156117aa57600080fd5b505af11580156117be573d6000803e3d6000fd5b50506040805186815260208101869052428183015290513393507fd8407011189bc1f0b9b1055d7f799e1bf76a390e25ae3bea65dd68b1d8364e8692509081900360600190a2505050565b60685460ff1615611843573360009081526069602052604090205460ff166118435760405162461bcd60e51b81526004016105839061502c565b61184b613a71565b6118588585858585613d23565b5050505050565b336000908152606b602052604090205460ff166118ae5760405162461bcd60e51b815260206004820152600d60248201526c27a7262cafa7a822a920aa27a960991b6044820152606401610583565b606554604051630d32c90760e01b8152600481018390526001600160a01b0390911690630d32c90790602401600060405180830381600087803b1580156118f457600080fd5b505af1158015611858573d6000803e3d6000fd5b60685460ff1615611942573360009081526069602052604090205460ff166119425760405162461bcd60e51b81526004016105839061502c565b61194a613a71565b606554604051632e21e28b60e21b81526000916001600160a01b03169063b8878a2c9061197f9033908b908b90600401614f8d565b6101806040518083038186803b15801561199857600080fd5b505afa1580156119ac573d6000803e3d6000fd5b505050506040513d601f19601f820116820180604052508101906119d091906149fd565b9050606754816101400151436119e69190615482565b1015611a045760405162461bcd60e51b815260040161058390615004565b821580611a2157508060800151611a1d57828511611a21565b8285105b611a585760405162461bcd60e51b8152602060048201526008602482015267057524f4e475f54560c41b6044820152606401610583565b811580611a7557508060800151611a7157818510611a75565b8185115b611aac5760405162461bcd60e51b815260206004820152600860248201526715d493d391d7d4d360c21b6044820152606401610583565b6101008101859052610120810184905260c0810183905260e0810182905260655460405163574564a760e11b81526001600160a01b039091169063ae8ac94e90611afa9084906004016150c1565b600060405180830381600087803b158015611b1457600080fd5b505af1158015611b28573d6000803e3d6000fd5b5050604080518a8152602081018a905290810188905260608101869052608081018590524260a08201523392507f710a8db87f04e82a9de40076812593a965f4aa48693196d2144c07ff9710e890915060c00160405180910390a250505050505050565b60685460009060ff1615611bc9573360009081526069602052604090205460ff16611bc95760405162461bcd60e51b81526004016105839061502c565b611bd1613a71565b60655460408051633078fff560e01b815290516000926001600160a01b031691633078fff5916004808301926020929190829003018186803b158015611c1657600080fd5b505afa158015611c2a573d6000803e3d6000fd5b505050506040513d601f19601f82011682018060405250810190611c4e9190614893565b6065546040516351d407ff60e11b81529192506000916001600160a01b039091169063a3a80ffe90611c889033908d908d90600401614f8d565b6101606040518083038186803b158015611ca157600080fd5b505afa158015611cb5573d6000803e3d6000fd5b505050506040513d601f19601f82011682018060405250810190611cd99190614b7f565b606554604051638c8ff1d560e01b81529192506000916001600160a01b0390911690638c8ff1d590611d139033908e908e90600401614f8d565b60a06040518083038186803b158015611d2b57600080fd5b505afa158015611d3f573d6000803e3d6000fd5b505050506040513d601f19601f82011682018060405250810190611d639190614aa5565b9050806060015115611dae5760405162461bcd60e51b81526020600482015260146024820152731053149150511657d091525391d7d0d313d4d15160621b6044820152606401610583565b60008260e0015111611dd25760405162461bcd60e51b815260040161058390614fe2565b6066548251602084015160408086015160c0870151606088015160e08901519351630284c13960e11b81526001600160a01b0396871660048201526024810195909552604485019290925215156064840152608483015260a4820152600092919091169063050982729060c40160206040518083038186803b158015611e5757600080fd5b505afa158015611e6b573d6000803e3d6000fd5b505050506040513d601f19601f82011682018060405250810190611e8f9190614c35565b60405163302809fd60e21b81529091506001600160a01b0385169063c0a027f490611ec0908e90600490810161529b565b602060405180830381600087803b158015611eda57600080fd5b505af1158015611eee573d6000803e3d6000fd5b505050506040513d601f19601f82011682018060405250810190611f129190614c35565b9450836001600160a01b031663cbe91bd986604051806101000160405280336001600160a01b031681526020018f81526020018e81526020018d6001811115611f5d57611f5d6154ca565b81526020018c8152602001866080015181526020018581526020018760e001518152506040518363ffffffff1660e01b8152600401611f9d9291906152bf565b600060405180830381600087803b158015611fb757600080fd5b505af1158015611fcb573d6000803e3d6000fd5b50505050611fe4826000015184606001518b8b856146b2565b606085015260e08401819052158015906120f35750836001600160a01b03166335b03c176040518163ffffffff1660e01b815260040160206040518083038186803b15801561203257600080fd5b505afa158015612046573d6000803e3d6000fd5b505050506040513d601f19601f8201168201806040525081019061206a9190614893565b6001600160a01b03166359a992d084602001516040518263ffffffff1660e01b815260040161209b91815260200190565b60206040518083038186803b1580156120b357600080fd5b505afa1580156120c7573d6000803e3d6000fd5b505050506040513d601f19601f820116820180604052508101906120eb9190614c35565b8360e0015110155b80156121f45750836001600160a01b03166335b03c176040518163ffffffff1660e01b815260040160206040518083038186803b15801561213357600080fd5b505afa158015612147573d6000803e3d6000fd5b505050506040513d601f19601f8201168201806040525081019061216b9190614893565b6001600160a01b031663281b693c84602001516040518263ffffffff1660e01b815260040161219c91815260200190565b60206040518083038186803b1580156121b457600080fd5b505afa1580156121c8573d6000803e3d6000fd5b505050506040513d601f19601f820116820180604052508101906121ec9190614c35565b8360e0015111155b6122355760405162461bcd60e51b815260206004820152601260248201527113115591549051d157d25390d3d4949150d560721b6044820152606401610583565b608082015160405133917f48452067591e9581b9c1f3135e16ae22829a7c8afc6b3d6a1afa2cd295cc113391612276918f918f918f918a9189914290615375565b60405180910390a260655460405163f0cb9b1160e01b81526001600160a01b039091169063f0cb9b11906122ae9086906004016151bf565b600060405180830381600087803b1580156122c857600080fd5b505af11580156122dc573d6000803e3d6000fd5b505060405163dd2f3c0560e01b81526001600160a01b038716925063dd2f3c05915034906123129089908c908c906004016151f4565b6000604051808303818588803b15801561232b57600080fd5b505af115801561233f573d6000803e3d6000fd5b5050505050505050509695505050505050565b606560009054906101000a90046001600160a01b03166001600160a01b03166312d43a516040518163ffffffff1660e01b815260040160206040518083038186803b1580156123a057600080fd5b505afa1580156123b4573d6000803e3d6000fd5b505050506040513d601f19601f820116820180604052508101906123d89190614893565b6001600160a01b0316336001600160a01b0316146124085760405162461bcd60e51b81526004016105839061509f565b600081116124425760405162461bcd60e51b8152602060048201526007602482015266056414c55455f360cc1b6044820152606401610583565b606781905560408051818152601391810191909152726c696d69744f726465727354696d656c6f636b60681b6060820152602081018290527f8cf3e35f6221b16e1670a3413180c9484bf5aa71787905909fa82a6a2662e9ab9060800161116f565b60685460ff16156124de573360009081526069602052604090205460ff166124de5760405162461bcd60e51b81526004016105839061502c565b6124e6613a71565b610f12838383613ab7565b60685460009060ff161561252e573360009081526069602052604090205460ff1661252e5760405162461bcd60e51b81526004016105839061502c565b612536613a71565b60685460405160009161010090046001600160a01b03169034908381818185875af1925050503d8060008114612588576040519150601f19603f3d011682016040523d82523d6000602084013e61258d565b606091505b50509050806125d75760405162461bcd60e51b815260206004820152601660248201527511561150d5551253d397d1915157d393d517d4d1539560521b6044820152606401610583565b6065546040516351d407ff60e11b81526000916001600160a01b03169063a3a80ffe9061260c9033908b908b90600401614f8d565b6101606040518083038186803b15801561262557600080fd5b505afa158015612639573d6000803e3d6000fd5b505050506040513d601f19601f8201168201806040525081019061265d9190614b7f565b60e00151606554604051638c8ff1d560e01b81529192506000916001600160a01b0390911690638c8ff1d59061269b9033908c908c90600401614f8d565b60a06040518083038186803b1580156126b357600080fd5b505afa1580156126c7573d6000803e3d6000fd5b505050506040513d601f19601f820116820180604052508101906126eb9190614aa5565b606001519050606560009054906101000a90046001600160a01b03166001600160a01b0316638049fde76040518163ffffffff1660e01b815260040160206040518083038186803b15801561273f57600080fd5b505afa158015612753573d6000803e3d6000fd5b505050506040513d601f19601f820116820180604052508101906127779190614c35565b60655460405163f7b3c6fd60e01b81523360048201526001600160a01b039091169063f7b3c6fd9060240160206040518083038186803b1580156127ba57600080fd5b505afa1580156127ce573d6000803e3d6000fd5b505050506040513d601f19601f820116820180604052508101906127f29190614c35565b106128345760405162461bcd60e51b81526020600482015260126024820152714d41585f50454e44494e475f4f524445525360701b6044820152606401610583565b80156128795760405162461bcd60e51b81526020600482015260146024820152731053149150511657d091525391d7d0d313d4d15160621b6044820152606401610583565b600082116128995760405162461bcd60e51b815260040161058390614fe2565b606560009054906101000a90046001600160a01b03166001600160a01b0316633078fff56040518163ffffffff1660e01b815260040160206040518083038186803b1580156128e757600080fd5b505afa1580156128fb573d6000803e3d6000fd5b505050506040513d601f19601f8201168201806040525081019061291f9190614893565b6001600160a01b031663c0a027f48960016040518363ffffffff1660e01b815260040161294d92919061529b565b602060405180830381600087803b15801561296757600080fd5b505af115801561297b573d6000803e3d6000fd5b505050506040513d601f19601f8201168201806040525081019061299f9190614c35565b606554604080516101e081018252336080820190815260a082018d905260c082018c905260e082018b90526000610100830181905261012083018190526101408301819052610160830181905261018083018190526101a083018190526101c0830181905290825260208201819052818301819052606082018190529151631b026ffd60e31b81529397506001600160a01b039092169263d8137fe892612a4d929091899190600401615174565b600060405180830381600087803b158015612a6757600080fd5b505af1158015612a7b573d6000803e3d6000fd5b5050604080518b8152600060208201529081018790524260608201523392507f1dc637f3b162f19a813b26fe5ed9122af72c7c58d7ff359728fd6517c110bf6491506080015b60405180910390a2505050949350505050565b60685460009060ff1615612b11573360009081526069602052604090205460ff16612b115760405162461bcd60e51b81526004016105839061502c565b612b19613a71565b60655460408051633078fff560e01b815290516000926001600160a01b031691633078fff5916004808301926020929190829003018186803b158015612b5e57600080fd5b505afa158015612b72573d6000803e3d6000fd5b505050506040513d601f19601f82011682018060405250810190612b969190614893565b90506000816001600160a01b03166335b03c176040518163ffffffff1660e01b815260040160206040518083038186803b158015612bd357600080fd5b505afa158015612be7573d6000803e3d6000fd5b505050506040513d601f19601f82011682018060405250810190612c0b9190614893565b6068546040519192506000916101009091046001600160a01b03169034908381818185875af1925050503d8060008114612c61576040519150601f19603f3d011682016040523d82523d6000602084013e612c66565b606091505b5050905080612cb05760405162461bcd60e51b815260206004820152601660248201527511561150d5551253d397d1915157d393d517d4d1539560521b6044820152606401610583565b606560009054906101000a90046001600160a01b03166001600160a01b0316638049fde76040518163ffffffff1660e01b815260040160206040518083038186803b158015612cfe57600080fd5b505afa158015612d12573d6000803e3d6000fd5b505050506040513d601f19601f82011682018060405250810190612d369190614c35565b60655460405163f7b3c6fd60e01b81523360048201526001600160a01b039091169063f7b3c6fd9060240160206040518083038186803b158015612d7957600080fd5b505afa158015612d8d573d6000803e3d6000fd5b505050506040513d601f19601f82011682018060405250810190612db19190614c35565b10612df35760405162461bcd60e51b81526020600482015260126024820152714d41585f50454e44494e475f4f524445525360701b6044820152606401610583565b606560009054906101000a90046001600160a01b03166001600160a01b031663f65d9dbe6040518163ffffffff1660e01b815260040160206040518083038186803b158015612e4157600080fd5b505afa158015612e55573d6000803e3d6000fd5b505050506040513d601f19601f82011682018060405250810190612e799190614c35565b606554604051634bf3ccad60e11b815233600482015260208b013560248201526001600160a01b03909116906397e7995a9060440160206040518083038186803b158015612ec657600080fd5b505afa158015612eda573d6000803e3d6000fd5b505050506040513d601f19601f82011682018060405250810190612efe9190614c35565b606554604051639c8912f160e01b815233600482015260208c013560248201526001600160a01b0390911690639c8912f19060440160206040518083038186803b158015612f4b57600080fd5b505afa158015612f5f573d6000803e3d6000fd5b505050506040513d601f19601f82011682018060405250810190612f839190614c35565b6065546040516307218dad60e21b815233600482015260208d013560248201526001600160a01b0390911690631c8636b49060440160206040518083038186803b158015612fd057600080fd5b505afa158015612fe4573d6000803e3d6000fd5b505050506040513d601f19601f820116820180604052508101906130089190614c35565b6130129190615429565b61301c9190615429565b1061305f5760405162461bcd60e51b815260206004820152601360248201527226a0ac2faa2920a222a9afa822a92fa820a4a960691b6044820152606401610583565b60405163238cd23f60e01b8152602089013560048201526001600160a01b0383169063238cd23f9060240160206040518083038186803b1580156130a257600080fd5b505afa1580156130b6573d6000803e3d6000fd5b505050506040513d601f19601f820116820180604052508101906130da9190614c35565b6130ec60808a013560e08b013561475e565b101561312a5760405162461bcd60e51b815260206004820152600d60248201526c42454c4f575f4d494e5f504f5360981b6044820152606401610583565b60008860e001351180156131bc575060405163059a992d60e41b8152602089013560048201526001600160a01b038316906359a992d09060240160206040518083038186803b15801561317c57600080fd5b505afa158015613190573d6000803e3d6000fd5b505050506040513d601f19601f820116820180604052508101906131b49190614c35565b8860e0013510155b80156132465750604051630a06da4f60e21b8152602089013560048201526001600160a01b0383169063281b693c9060240160206040518083038186803b15801561320657600080fd5b505afa15801561321a573d6000803e3d6000fd5b505050506040513d601f19601f8201168201806040525081019061323e9190614c35565b8860e0013511155b6132875760405162461bcd60e51b815260206004820152601260248201527113115591549051d157d25390d3d4949150d560721b6044820152606401610583565b61010088013515806132c657506132a460e0890160c08a01614943565b6132b9578760a00135886101000135106132c6565b8760a00135886101000135115b6132fd5760405162461bcd60e51b8152602060048201526008602482015267057524f4e475f54560c41b6044820152606401610583565b610120880135158061333c575061331a60e0890160c08a01614943565b61332f578760a001358861012001351161333c565b8760a00135886101200135105b6133735760405162461bcd60e51b815260206004820152600860248201526715d493d391d7d4d360c21b6044820152606401610583565b6000876002811115613387576133876154ca565b146136ba576065546001600160a01b0316638b83351a33826133ad8960808e0135615429565b6040516001600160e01b031960e086901b1681526001600160a01b0393841660048201529290911660248301526044820152606401600060405180830381600087803b1580156133fc57600080fd5b505af1158015613410573d6000803e3d6000fd5b505060655460405163226a27ad60e11b815233600482015260208c01356024820152600093506001600160a01b0390911691506344d44f5a9060440160206040518083038186803b15801561346457600080fd5b505afa158015613478573d6000803e3d6000fd5b505050506040513d601f19601f8201168201806040525081019061349c9190614c35565b606554604080516101808101825233815260208d810135908201529081018390526080808d013560608301529293506001600160a01b039091169163fdb153e2919081016134f060e08e0160c08f01614943565b151581526020018c60e0013581526020018c610100013581526020018c610120013581526020018c60a0013581526020018a8152602001438152602001898152506040518263ffffffff1660e01b815260040161354d91906150c1565b600060405180830381600087803b15801561356757600080fd5b505af115801561357b573d6000803e3d6000fd5b50505050836001600160a01b031663b21f45176040518163ffffffff1660e01b815260040160206040518083038186803b1580156135b857600080fd5b505afa1580156135cc573d6000803e3d6000fd5b505050506040513d601f19601f820116820180604052508101906135f09190614893565b6001600160a01b031663ec570610338b60200135848c6040518563ffffffff1660e01b81526004016136259493929190614fae565b600060405180830381600087803b15801561363f57600080fd5b505af1158015613653573d6000803e3d6000fd5b503392507f8c47a168abd9fd3b41ee8a948bb081b7957747038e88fe050f7bc017e905656091505060208b01358361369160e08e0160c08f01614943565b8d60a001358b8e8e6040516136ac9796959493929190615331565b60405180910390a250613918565b6065546040516345c19a8d60e11b81523360048201526001600160a01b039091166024820181905260808a0135604483015290638b83351a90606401600060405180830381600087803b15801561371057600080fd5b505af1158015613724573d6000803e3d6000fd5b505060405163302809fd60e21b81526001600160a01b038616925063c0a027f4915061375b9060208c01359060009060040161529b565b602060405180830381600087803b15801561377557600080fd5b505af1158015613789573d6000803e3d6000fd5b505050506040513d601f19601f820116820180604052508101906137ad9190614c35565b9350606560009054906101000a90046001600160a01b03166001600160a01b031663d8137fe86040518060800160405280604051806101600160405280336001600160a01b031681526020018d60200135815260200160008152602001600081526020018d608001358152602001600081526020018d60c00160208101906138359190614943565b151581526020018d60e0013581526020018d610100013581526020018d6101200135815260200160008152508152602001600081526020018b60a001358152602001898152508660016040518463ffffffff1660e01b815260040161389c93929190615174565b600060405180830381600087803b1580156138b657600080fd5b505af11580156138ca573d6000803e3d6000fd5b5050604080516020808d013582526001908201529081018790524260608201523392507f1dc637f3b162f19a813b26fe5ed9122af72c7c58d7ff359728fd6517c110bf649150608001612ac1565b505050949350505050565b606560009054906101000a90046001600160a01b03166001600160a01b03166312d43a516040518163ffffffff1660e01b815260040160206040518083038186803b15801561397157600080fd5b505afa158015613985573d6000803e3d6000fd5b505050506040513d601f19601f820116820180604052508101906139a99190614893565b6001600160a01b0316336001600160a01b0316146139d95760405162461bcd60e51b81526004016105839061509f565b6001600160a01b0381166139ec57600080fd5b6001600160a01b03811660009081526069602052604090819020805460ff19166001179055517f943e9d45a11aaae5d87503e3bc248665d9807856e5cf2bdb4a988bee444227819061116f9083906040808252600c908201526b18591915da1a5d195b1a5cdd60a21b60608201526001600160a01b0391909116602082015260800190565b60335460ff16156106725760405162461bcd60e51b815260206004820152601060248201526f14185d5cd8589b194e881c185d5cd95960821b6044820152606401610583565b6065546040516351d407ff60e11b81526000916001600160a01b03169063a3a80ffe90613aec90339088908890600401614f8d565b6101606040518083038186803b158015613b0557600080fd5b505afa158015613b19573d6000803e3d6000fd5b505050506040513d601f19601f82011682018060405250810190613b3d9190614b7f565b60e00151606554604051638c8ff1d560e01b81529192506000916001600160a01b0390911690638c8ff1d590613b7b90339089908990600401614f8d565b60a06040518083038186803b158015613b9357600080fd5b505afa158015613ba7573d6000803e3d6000fd5b505050506040513d601f19601f82011682018060405250810190613bcb9190614aa5565b60200151905060008211613bf15760405162461bcd60e51b815260040161058390614fe2565b606754613bfe8243615482565b1015613c1c5760405162461bcd60e51b815260040161058390615004565b6001600160ff1b038310613c615760405162461bcd60e51b815260206004820152600c60248201526b0494e434f52524543545f54560a41b6044820152606401610583565b606554604051637fdb96f360e01b81523360048201526024810187905260448101869052606481018590526001600160a01b0390911690637fdb96f390608401600060405180830381600087803b158015613cbb57600080fd5b505af1158015613ccf573d6000803e3d6000fd5b505060408051888152602081018890529081018690524260608201523392507f01c13b316ce9327f58f220b36e368c197eda79df0102d7f4363f1e7fe29323e8915060800160405180910390a25050505050565b6065546040516351d407ff60e11b81526000916001600160a01b03169063a3a80ffe90613d589033908a908a90600401614f8d565b6101606040518083038186803b158015613d7157600080fd5b505afa158015613d85573d6000803e3d6000fd5b505050506040513d601f19601f82011682018060405250810190613da99190614b7f565b606554604051638c8ff1d560e01b81529192506000916001600160a01b0390911690638c8ff1d590613de39033908b908b90600401614f8d565b60a06040518083038186803b158015613dfb57600080fd5b505afa158015613e0f573d6000803e3d6000fd5b505050506040513d601f19601f82011682018060405250810190613e339190614aa5565b60400151905060008260e0015111613e5d5760405162461bcd60e51b815260040161058390614fe2565b6001600160ff1b038510613ea25760405162461bcd60e51b815260206004820152600c60248201526b125390d3d4949150d517d4d360a21b6044820152606401610583565b6000613ecf8360e00151606460508660a00151613ebf9190615463565b613ec99190615441565b90614781565b9050851580613f0e57508260c00151613efa57808360a00151613ef29190615429565b861115613f0e565b808360a00151613f0a9190615482565b8610155b613f475760405162461bcd60e51b815260206004820152600a602482015269534c5f544f4f5f42494760b01b6044820152606401610583565b606754613f548343615482565b1015613f725760405162461bcd60e51b815260040161058390615004565b60655460408051633078fff560e01b815290516000926001600160a01b031691633078fff5916004808301926020929190829003018186803b158015613fb757600080fd5b505afa158015613fcb573d6000803e3d6000fd5b505050506040513d601f19601f82011682018060405250810190613fef9190614893565b90508615806140e95750806001600160a01b03166335b03c176040518163ffffffff1660e01b815260040160206040518083038186803b15801561403257600080fd5b505afa158015614046573d6000803e3d6000fd5b505050506040513d601f19601f8201168201806040525081019061406a9190614893565b6001600160a01b03166324abd3fb8a6040518263ffffffff1660e01b815260040161409791815260200190565b60206040518083038186803b1580156140af57600080fd5b505afa1580156140c3573d6000803e3d6000fd5b505050506040513d601f19601f820116820180604052508101906140e79190614960565b155b156141ae5760655460405163a354418160e01b8152336004820152602481018b9052604481018a9052606481018990526001600160a01b039091169063a354418190608401600060405180830381600087803b15801561414857600080fd5b505af115801561415c573d6000803e3d6000fd5b5050604080518c8152602081018c90529081018a90524260608201523392507f6a750d0aaea2df37b3b72b79412df54b9e55109ccfaedf5dcecc2af9993a61de915060800160405180910390a261451e565b60006141cb8560e00151866060015161475e90919063ffffffff16565b6065548651602088015160c0890151604051632a9a966760e01b81526001600160a01b0393841660048201526024810192909252600185811c6044840152600060648401526084830152151560a48201529293501690632a9a96679060c401602060405180830381600087803b15801561424457600080fd5b505af1158015614258573d6000803e3d6000fd5b505050506040513d601f19601f8201168201806040525081019061427c9190614c35565b8560600181815161428d9190615482565b90525060655460405163f0cb9b1160e01b81526001600160a01b039091169063f0cb9b11906142c09088906004016151bf565b600060405180830381600087803b1580156142da57600080fd5b505af11580156142ee573d6000803e3d6000fd5b505060405163302809fd60e21b8152600092506001600160a01b038516915063c0a027f490614324908e9060059060040161529b565b602060405180830381600087803b15801561433e57600080fd5b505af1158015614352573d6000803e3d6000fd5b505050506040513d601f19601f820116820180604052508101906143769190614c35565b9050826001600160a01b031663b8213bfa826040518060c00160405280336001600160a01b031681526020018f81526020018e81526020018a60a0015181526020018a60c00151151581526020018d8152506040518363ffffffff1660e01b8152600401614435929190600060e08201905083825260018060a01b0383511660208301526020830151604083015260408301516060830152606083015160808301526080830151151560a083015260a083015160c08301529392505050565b600060405180830381600087803b15801561444f57600080fd5b505af1158015614463573d6000803e3d6000fd5b5050604080518e8152602081018e90529081018c9052606081018490524260808201523392507fb24bbc82fd04bd3dab7c96c1cabc7a0f7a1a87dfa2b47239926fbde0a0bfa8be915060a00160405180910390a260405163dd2f3c0560e01b81526001600160a01b0384169063dd2f3c059034906144e99085908d908d906004016151f4565b6000604051808303818588803b15801561450257600080fd5b505af1158015614516573d6000803e3d6000fd5b505050505050505b505050505050505050565b614531614793565b6033805460ff191690557f5db9ee0a495bf2e6ff9c91a7834c1ba4fdd244a5e8aa4e537bd38aeae4b073aa335b6040516001600160a01b039091168152602001611274565b6066548151602083015160408085015160a086015160c0870151606088015160e08901519451636bc84d5960e01b81526001600160a01b0397881660048201526024810196909652604486019390935260648501919091521515608484015260a483015260c48201526000929190911690636bc84d599060e40160206040518083038186803b15801561460857600080fd5b505afa15801561461c573d6000803e3d6000fd5b505050506040513d601f19601f820116820180604052508101906146409190614c35565b92915050565b600054610100900460ff1661466d5760405162461bcd60e51b815260040161058390615054565b6106726147dc565b61467d613a71565b6033805460ff191660011790557f62e78cea01bee320cd4e420270b5ea74000d11b0c9f74754ebdbfc544b05a25861455e3390565b600080808560018111156146c8576146c86154ca565b141561470657826146d98588615429565b6146e39190615482565b9050806146f56402540be40089615463565b6146ff9190615441565b9150614754565b600185600181111561471a5761471a6154ca565b1415614754578261472b8588615482565b6147359190615482565b9050806147476402540be40089615463565b6147519190615441565b91505b9550959350505050565b60006402540be4006147708385615463565b61477a9190615441565b9392505050565b6000816147706402540be40085615463565b60335460ff166106725760405162461bcd60e51b815260206004820152601460248201527314185d5cd8589b194e881b9bdd081c185d5cd95960621b6044820152606401610583565b600054610100900460ff166148035760405162461bcd60e51b815260040161058390615054565b6033805460ff19169055565b805161481a816154f6565b919050565b60008083601f84011261483157600080fd5b50813567ffffffffffffffff81111561484957600080fd5b6020830191508360208260051b850101111561486457600080fd5b9250929050565b805161481a8161550e565b60006020828403121561488857600080fd5b813561477a816154f6565b6000602082840312156148a557600080fd5b815161477a816154f6565b600080604083850312156148c357600080fd5b82356148ce816154f6565b915060208301356148de816154f6565b809150509250929050565b600080604083850312156148fc57600080fd5b8235614907816154f6565b915060208301356148de8161550e565b6000806040838503121561492a57600080fd5b8235614935816154f6565b946020939093013593505050565b60006020828403121561495557600080fd5b813561477a8161550e565b60006020828403121561497257600080fd5b815161477a8161550e565b60008060008060008060a0878903121561499657600080fd5b8635600481106149a557600080fd5b955060208701356149b5816154f6565b94506040870135935060608701359250608087013567ffffffffffffffff8111156149df57600080fd5b6149eb89828a0161481f565b979a9699509497509295939492505050565b60006101808284031215614a1057600080fd5b614a186153bf565b614a218361480f565b8152602083015160208201526040830151604082015260608301516060820152614a4d6080840161486b565b608082015260a0838101519082015260c0808401519082015260e08084015190820152610100808401519082015261012080840151908201526101408084015190820152610160928301519281019290925250919050565b600060a08284031215614ab757600080fd5b60405160a0810181811067ffffffffffffffff82111715614ae857634e487b7160e01b600052604160045260246000fd5b80604052508251815260208301516020820152604083015160408201526060830151614b138161550e565b60608201526080928301519281019290925250919050565b6000806000808486036101c0811215614b4357600080fd5b61016080821215614b5357600080fd5b869550850135905060038110614b6857600080fd5b9396939550505050610180820135916101a0013590565b60006101608284031215614b9257600080fd5b614b9a6153f7565b614ba38361480f565b81526020830151602082015260408301516040820152606083015160608201526080830151608082015260a083015160a0820152614be360c0840161486b565b60c082015260e0838101519082015261010080840151908201526101208084015190820152610140928301519281019290925250919050565b600060208284031215614c2e57600080fd5b5035919050565b600060208284031215614c4757600080fd5b5051919050565b600080600080600060608688031215614c6657600080fd5b85359450602086013567ffffffffffffffff80821115614c8557600080fd5b614c9189838a0161481f565b90965094506040880135915080821115614caa57600080fd5b50614cb78882890161481f565b969995985093965092949392505050565b60008060408385031215614cdb57600080fd5b50508035926020909101359150565b60008060008060008060a08789031215614d0357600080fd5b8635955060208701359450604087013560028110614d2057600080fd5b935060608701359250608087013567ffffffffffffffff8111156149df57600080fd5b600080600060608486031215614d5857600080fd5b505081359360208301359350604090920135919050565b600080600080600060808688031215614d8757600080fd5b853594506020860135935060408601359250606086013567ffffffffffffffff811115614db357600080fd5b614cb78882890161481f565b60008060008060808587031215614dd557600080fd5b5050823594602084013594506040840135936060013592509050565b60008060008060008060a08789031215614e0a57600080fd5b86359550602087013594506040870135935060608701359250608087013567ffffffffffffffff8111156149df57600080fd5b60008060008060008060c08789031215614e5657600080fd5b505084359660208601359650604086013595606081013595506080810135945060a0013592509050565b81835281816020850137506000828201602090810191909152601f909101601f19169091010190565b60038110614eb957614eb96154ca565b9052565b60028110614eb957614eb96154ca565b80516001600160a01b031682526020808201519083015260408082015190830152606081015160048110614f0357614f036154ca565b806060840152505050565b80516001600160a01b031682526020810151602083015260408101516040830152606081015160608301526080810151608083015260a081015160a083015260c0810151614f6060c084018215159052565b5060e081810151908301526101008082015190830152610120808201519083015261014090810151910152565b6001600160a01b039390931683526020830191909152604082015260600190565b6001600160a01b0385168152602081018490526040810183905260808101614fd96060830184614ea9565b95945050505050565b6020808252600890820152674e4f5f545241444560c01b604082015260600190565b6020808252600e908201526d4c494d49545f54494d454c4f434b60901b604082015260600190565b6020808252600e908201526d57484954454c4953545f4f4e4c5960901b604082015260600190565b6020808252602b908201527f496e697469616c697a61626c653a20636f6e7472616374206973206e6f74206960408201526a6e697469616c697a696e6760a81b606082015260800190565b602080825260089082015267474f565f4f4e4c5960c01b604082015260600190565b81516001600160a01b0316815261018081016020830151602083015260408301516040830152606083015160608301526080830151615104608084018215159052565b5060a083015160a083015260c083015160c083015260e083015160e083015261010080840151818401525061012080840151818401525061014080840151818401525061016080840151818401525092915050565b60a081016151678285614ecd565b8260808301529392505050565b600061020082019050615188828651614f0e565b602085015161016083015260408501516101808301526060909401516101a08201526101c081019290925215156101e09091015290565b61016081016146408284614f0e565b60a081016151dc8285614ecd565b6001600160a01b039290921660809190910152919050565b60006040820185835260206040818501528185835260608501905060608660051b86010192508660005b8781101561528d57868503605f190183528135368a9003601e1901811261524457600080fd5b8901803567ffffffffffffffff81111561525d57600080fd5b8036038b131561526c57600080fd5b6152798782888501614e80565b96505050918301919083019060010161521e565b509298975050505050505050565b82815260408101600683106152b2576152b26154ca565b8260208301529392505050565b60006101208201905083825260018060a01b038351166020830152602083015160408301526040830151606083015260608301516153006080840182614ebd565b50608083015160a083015260a083015160c083015260c083015160e083015260e08301516101008301529392505050565b600060e082019050888252876020830152861515604083015285606083015284608083015261536360a0830185614ea9565b8260c083015298975050505050505050565b8781526020810187905261022081016153916040830188614ebd565b61539e6060830187614f0e565b846101c0830152836101e08301528261020083015298975050505050505050565b604051610180810167ffffffffffffffff811182821017156153f157634e487b7160e01b600052604160045260246000fd5b60405290565b604051610160810167ffffffffffffffff811182821017156153f157634e487b7160e01b600052604160045260246000fd5b6000821982111561543c5761543c6154b4565b500190565b60008261545e57634e487b7160e01b600052601260045260246000fd5b500490565b600081600019048311821515161561547d5761547d6154b4565b500290565b600082821015615494576154946154b4565b500390565b60006000198214156154ad576154ad6154b4565b5060010190565b634e487b7160e01b600052601160045260246000fd5b634e487b7160e01b600052602160045260246000fd5b634e487b7160e01b600052603260045260246000fd5b6001600160a01b038116811461550b57600080fd5b50565b801515811461550b57600080fdfea264697066735822122067609fc237806ef1e56eb4597a4a0db52be10bfd5ce8b4ab17a15a7994e911fb64736f6c63430008070033","linkReferences":{}},"methodIdentifiers":{"addWhitelist(address)":"f80f5dd5","cancelOpenLimitOrder(uint256,uint256)":"b9b6573a","cancelPendingMarketOrder(uint256)":"c5ed6a08","closeTradeMarket(uint256,uint256,uint256,uint256)":"e5a97c92","executeLimitOrder(uint8,address,uint256,uint256,bytes[])":"46f6c8f5","executeMarketOrders(uint256,uint256[],bytes[])":"a03074c1","initialize(address,address)":"485cc955","isOperator(address)":"6d70f7ae","isWhitelisted()":"611b4095","lastUpdateTime(address,uint256)":"080b44bb","limitOrdersTimelock()":"0890d22a","openTrade((address,uint256,uint256,uint256,uint256,uint256,bool,uint256,uint256,uint256,uint256),uint8,uint256,uint256)":"f5567637","operator()":"570ca735","pairInfos()":"1346b0ff","pause()":"8456cb59","paused()":"5c975abb","removeWhitelist(address)":"78c8cda7","setLimitOrdersTimelock(uint256)":"d4a1caa7","setMarketExecFeeReciever(address)":"9e2033f5","storageT()":"16fff074","toggleWhitelist()":"7e15144b","unpause()":"3f4ba83a","updateMargin(uint256,uint256,uint8,uint256,bytes[])":"cd90b8a4","updateOpenLimitOrder(uint256,uint256,uint256,uint256,uint256,uint256)":"c641558e","updateOperator(address,bool)":"6d44a3b2","updateSl(uint256,uint256,uint256,bytes[])":"c383e5de","updateTp(uint256,uint256,uint256)":"d8defd15","updateTpAndSl(uint256,uint256,uint256,uint256,bytes[])":"15b760b1","whitelistedAddress(address)":"c30796ab"},"id":109}