{"abi":[{"type":"constructor","inputs":[],"stateMutability":"nonpayable"},{"type":"function","name":"allowance","inputs":[{"name":"owner","type":"address","internalType":"address"},{"name":"spender","type":"address","internalType":"address"}],"outputs":[{"name":"","type":"uint256","internalType":"uint256"}],"stateMutability":"view"},{"type":"function","name":"approve","inputs":[{"name":"spender","type":"address","internalType":"address"},{"name":"amount","type":"uint256","internalType":"uint256"}],"outputs":[{"name":"","type":"bool","internalType":"bool"}],"stateMutability":"nonpayable"},{"type":"function","name":"asset","inputs":[],"outputs":[{"name":"","type":"address","internalType":"address"}],"stateMutability":"view"},{"type":"function","name":"balanceOf","inputs":[{"name":"account","type":"address","internalType":"address"}],"outputs":[{"name":"","type":"uint256","internalType":"uint256"}],"stateMutability":"view"},{"type":"function","name":"balancingFee","inputs":[{"name":"assets","type":"uint256","internalType":"uint256"},{"name":"isDeposit","type":"bool","internalType":"bool"}],"outputs":[{"name":"","type":"uint256","internalType":"uint256"}],"stateMutability":"view"},{"type":"function","name":"collateralHealthFee","inputs":[],"outputs":[{"name":"","type":"uint256","internalType":"uint256"}],"stateMutability":"view"},{"type":"function","name":"convertToAssets","inputs":[{"name":"shares","type":"uint256","internalType":"uint256"}],"outputs":[{"name":"","type":"uint256","internalType":"uint256"}],"stateMutability":"view"},{"type":"function","name":"convertToShares","inputs":[{"name":"assets","type":"uint256","internalType":"uint256"}],"outputs":[{"name":"","type":"uint256","internalType":"uint256"}],"stateMutability":"view"},{"type":"function","name":"decimals","inputs":[],"outputs":[{"name":"","type":"uint8","internalType":"uint8"}],"stateMutability":"view"},{"type":"function","name":"decreaseAllowance","inputs":[{"name":"spender","type":"address","internalType":"address"},{"name":"subtractedValue","type":"uint256","internalType":"uint256"}],"outputs":[{"name":"","type":"bool","internalType":"bool"}],"stateMutability":"nonpayable"},{"type":"function","name":"deposit","inputs":[{"name":"assets","type":"uint256","internalType":"uint256"},{"name":"receiver","type":"address","internalType":"address"}],"outputs":[{"name":"","type":"uint256","internalType":"uint256"}],"stateMutability":"nonpayable"},{"type":"function","name":"depositCap","inputs":[],"outputs":[{"name":"","type":"uint256","internalType":"uint256"}],"stateMutability":"view"},{"type":"function","name":"feesOn","inputs":[],"outputs":[{"name":"","type":"bool","internalType":"bool"}],"stateMutability":"view"},{"type":"function","name":"getDepositFeesRaw","inputs":[{"name":"assets","type":"uint256","internalType":"uint256"}],"outputs":[{"name":"","type":"uint256","internalType":"uint256"}],"stateMutability":"view"},{"type":"function","name":"getDepositFeesTotal","inputs":[{"name":"assets","type":"uint256","internalType":"uint256"}],"outputs":[{"name":"","type":"uint256","internalType":"uint256"}],"stateMutability":"view"},{"type":"function","name":"getWithdrawalFeesRaw","inputs":[{"name":"assets","type":"uint256","internalType":"uint256"}],"outputs":[{"name":"","type":"uint256","internalType":"uint256"}],"stateMutability":"view"},{"type":"function","name":"getWithdrawalFeesTotal","inputs":[{"name":"assets","type":"uint256","internalType":"uint256"}],"outputs":[{"name":"","type":"uint256","internalType":"uint256"}],"stateMutability":"view"},{"type":"function","name":"hasLiquidity","inputs":[{"name":"_reserveAmount","type":"uint256","internalType":"uint256"}],"outputs":[{"name":"","type":"bool","internalType":"bool"}],"stateMutability":"view"},{"type":"function","name":"increaseAllowance","inputs":[{"name":"spender","type":"address","internalType":"address"},{"name":"addedValue","type":"uint256","internalType":"uint256"}],"outputs":[{"name":"","type":"bool","internalType":"bool"}],"stateMutability":"nonpayable"},{"type":"function","name":"initialize","inputs":[{"name":"__asset","type":"address","internalType":"address"},{"name":"_vaultManager","type":"address","internalType":"address"},{"name":"trancheName","type":"string","internalType":"string"},{"name":"tranchSymbol","type":"string","internalType":"string"}],"outputs":[],"stateMutability":"nonpayable"},{"type":"function","name":"maxDeposit","inputs":[{"name":"","type":"address","internalType":"address"}],"outputs":[{"name":"","type":"uint256","internalType":"uint256"}],"stateMutability":"view"},{"type":"function","name":"maxMint","inputs":[{"name":"","type":"address","internalType":"address"}],"outputs":[{"name":"","type":"uint256","internalType":"uint256"}],"stateMutability":"view"},{"type":"function","name":"maxRedeem","inputs":[{"name":"owner","type":"address","internalType":"address"}],"outputs":[{"name":"","type":"uint256","internalType":"uint256"}],"stateMutability":"view"},{"type":"function","name":"maxWithdraw","inputs":[{"name":"owner","type":"address","internalType":"address"}],"outputs":[{"name":"","type":"uint256","internalType":"uint256"}],"stateMutability":"view"},{"type":"function","name":"mint","inputs":[{"name":"shares","type":"uint256","internalType":"uint256"},{"name":"receiver","type":"address","internalType":"address"}],"outputs":[{"name":"","type":"uint256","internalType":"uint256"}],"stateMutability":"nonpayable"},{"type":"function","name":"name","inputs":[],"outputs":[{"name":"","type":"string","internalType":"string"}],"stateMutability":"view"},{"type":"function","name":"previewDeposit","inputs":[{"name":"assets","type":"uint256","internalType":"uint256"}],"outputs":[{"name":"","type":"uint256","internalType":"uint256"}],"stateMutability":"view"},{"type":"function","name":"previewMint","inputs":[{"name":"shares","type":"uint256","internalType":"uint256"}],"outputs":[{"name":"","type":"uint256","internalType":"uint256"}],"stateMutability":"view"},{"type":"function","name":"previewRedeem","inputs":[{"name":"shares","type":"uint256","internalType":"uint256"}],"outputs":[{"name":"","type":"uint256","internalType":"uint256"}],"stateMutability":"view"},{"type":"function","name":"previewWithdraw","inputs":[{"name":"assets","type":"uint256","internalType":"uint256"}],"outputs":[{"name":"","type":"uint256","internalType":"uint256"}],"stateMutability":"view"},{"type":"function","name":"principalAssetsDeposited","inputs":[{"name":"","type":"address","internalType":"address"}],"outputs":[{"name":"","type":"uint256","internalType":"uint256"}],"stateMutability":"view"},{"type":"function","name":"principalSharesDeposited","inputs":[{"name":"","type":"address","internalType":"address"}],"outputs":[{"name":"","type":"uint256","internalType":"uint256"}],"stateMutability":"view"},{"type":"function","name":"redeem","inputs":[{"name":"shares","type":"uint256","internalType":"uint256"},{"name":"receiver","type":"address","internalType":"address"},{"name":"owner","type":"address","internalType":"address"}],"outputs":[{"name":"","type":"uint256","internalType":"uint256"}],"stateMutability":"nonpayable"},{"type":"function","name":"releaseBalance","inputs":[{"name":"amount","type":"uint256","internalType":"uint256"}],"outputs":[],"stateMutability":"nonpayable"},{"type":"function","name":"reserveBalance","inputs":[{"name":"amount","type":"uint256","internalType":"uint256"}],"outputs":[],"stateMutability":"nonpayable"},{"type":"function","name":"setCap","inputs":[{"name":"_newCap","type":"uint256","internalType":"uint256"}],"outputs":[],"stateMutability":"nonpayable"},{"type":"function","name":"setFeesOn","inputs":[{"name":"_feesOn","type":"bool","internalType":"bool"}],"outputs":[],"stateMutability":"nonpayable"},{"type":"function","name":"setVaultManager","inputs":[{"name":"_vaultManager","type":"address","internalType":"address"}],"outputs":[],"stateMutability":"nonpayable"},{"type":"function","name":"setVeTranche","inputs":[{"name":"_veTranche","type":"address","internalType":"address"}],"outputs":[],"stateMutability":"nonpayable"},{"type":"function","name":"setWithdrawThreshold","inputs":[{"name":"_withdrawThreshold","type":"uint256","internalType":"uint256"}],"outputs":[],"stateMutability":"nonpayable"},{"type":"function","name":"symbol","inputs":[],"outputs":[{"name":"","type":"string","internalType":"string"}],"stateMutability":"view"},{"type":"function","name":"totalAssets","inputs":[],"outputs":[{"name":"","type":"uint256","internalType":"uint256"}],"stateMutability":"view"},{"type":"function","name":"totalPrincipalDeposited","inputs":[],"outputs":[{"name":"","type":"uint256","internalType":"uint256"}],"stateMutability":"view"},{"type":"function","name":"totalReserved","inputs":[],"outputs":[{"name":"","type":"uint256","internalType":"uint256"}],"stateMutability":"view"},{"type":"function","name":"totalSupply","inputs":[],"outputs":[{"name":"","type":"uint256","internalType":"uint256"}],"stateMutability":"view"},{"type":"function","name":"transfer","inputs":[{"name":"to","type":"address","internalType":"address"},{"name":"amount","type":"uint256","internalType":"uint256"}],"outputs":[{"name":"","type":"bool","internalType":"bool"}],"stateMutability":"nonpayable"},{"type":"function","name":"transferFrom","inputs":[{"name":"from","type":"address","internalType":"address"},{"name":"to","type":"address","internalType":"address"},{"name":"amount","type":"uint256","internalType":"uint256"}],"outputs":[{"name":"","type":"bool","internalType":"bool"}],"stateMutability":"nonpayable"},{"type":"function","name":"utilizationRatio","inputs":[],"outputs":[{"name":"","type":"uint256","internalType":"uint256"}],"stateMutability":"view"},{"type":"function","name":"vaultManager","inputs":[],"outputs":[{"name":"","type":"address","internalType":"contract IVaultManager"}],"stateMutability":"view"},{"type":"function","name":"veTranche","inputs":[],"outputs":[{"name":"","type":"address","internalType":"address"}],"stateMutability":"view"},{"type":"function","name":"withdraw","inputs":[{"name":"assets","type":"uint256","internalType":"uint256"},{"name":"receiver","type":"address","internalType":"address"},{"name":"owner","type":"address","internalType":"address"}],"outputs":[{"name":"","type":"uint256","internalType":"uint256"}],"stateMutability":"nonpayable"},{"type":"function","name":"withdrawAsVaultManager","inputs":[{"name":"amount","type":"uint256","internalType":"uint256"}],"outputs":[],"stateMutability":"nonpayable"},{"type":"function","name":"withdrawThreshold","inputs":[],"outputs":[{"name":"","type":"uint256","internalType":"uint256"}],"stateMutability":"view"},{"type":"event","name":"Approval","inputs":[{"name":"owner","type":"address","indexed":true,"internalType":"address"},{"name":"spender","type":"address","indexed":true,"internalType":"address"},{"name":"value","type":"uint256","indexed":false,"internalType":"uint256"}],"anonymous":false},{"type":"event","name":"BalanceReleased","inputs":[{"name":"amount","type":"uint256","indexed":false,"internalType":"uint256"}],"anonymous":false},{"type":"event","name":"BalanceReserved","inputs":[{"name":"amount","type":"uint256","indexed":false,"internalType":"uint256"}],"anonymous":false},{"type":"event","name":"Deposit","inputs":[{"name":"sender","type":"address","indexed":true,"internalType":"address"},{"name":"owner","type":"address","indexed":true,"internalType":"address"},{"name":"assets","type":"uint256","indexed":false,"internalType":"uint256"},{"name":"shares","type":"uint256","indexed":false,"internalType":"uint256"}],"anonymous":false},{"type":"event","name":"FeesStatusUpdated","inputs":[{"name":"feesOn","type":"bool","indexed":false,"internalType":"bool"}],"anonymous":false},{"type":"event","name":"Initialized","inputs":[{"name":"version","type":"uint8","indexed":false,"internalType":"uint8"}],"anonymous":false},{"type":"event","name":"ReserveCapUpdated","inputs":[{"name":"newCap","type":"uint256","indexed":false,"internalType":"uint256"}],"anonymous":false},{"type":"event","name":"TokenTransferred","inputs":[{"name":"from","type":"address","indexed":true,"internalType":"address"},{"name":"to","type":"address","indexed":true,"internalType":"address"},{"name":"shares","type":"uint256","indexed":false,"internalType":"uint256"},{"name":"assets","type":"uint256","indexed":false,"internalType":"uint256"}],"anonymous":false},{"type":"event","name":"Transfer","inputs":[{"name":"from","type":"address","indexed":true,"internalType":"address"},{"name":"to","type":"address","indexed":true,"internalType":"address"},{"name":"value","type":"uint256","indexed":false,"internalType":"uint256"}],"anonymous":false},{"type":"event","name":"VaultManagerUpdated","inputs":[{"name":"vaultManager","type":"address","indexed":true,"internalType":"address"}],"anonymous":false},{"type":"event","name":"VeTrancheUpdated","inputs":[{"name":"veTranche","type":"address","indexed":true,"internalType":"address"}],"anonymous":false},{"type":"event","name":"Withdraw","inputs":[{"name":"sender","type":"address","indexed":true,"internalType":"address"},{"name":"receiver","type":"address","indexed":true,"internalType":"address"},{"name":"owner","type":"address","indexed":true,"internalType":"address"},{"name":"assets","type":"uint256","indexed":false,"internalType":"uint256"},{"name":"shares","type":"uint256","indexed":false,"internalType":"uint256"}],"anonymous":false},{"type":"event","name":"WithdrawThresholdUpdated","inputs":[{"name":"newThreshold","type":"uint256","indexed":false,"internalType":"uint256"}],"anonymous":false}],"bytecode":{"object":"0x60806040523480156200001157600080fd5b506200001c62000022565b620000e3565b600054610100900460ff16156200008f5760405162461bcd60e51b815260206004820152602760248201527f496e697469616c697a61626c653a20636f6e747261637420697320696e697469604482015266616c697a696e6760c81b606482015260840160405180910390fd5b60005460ff90811614620000e1576000805460ff191660ff9081179091556040519081527f7f26b83ff96e1f2b6a682f133852f6798a09c465da95921460cefb38474024989060200160405180910390a15b565b61303080620000f36000396000f3fe608060405234801561001057600080fd5b50600436106103275760003560e01c806383000097116101b8578063ba08765211610104578063d905777e116100a2578063e53a788a1161007c578063e53a788a146106d4578063ede5bed1146106e7578063ef8b30f7146106ef578063feefd7dd1461070257600080fd5b8063d905777e146106a5578063dbd5edc7146106b8578063dd62ed3e146106c157600080fd5b8063c6e6f592116100de578063c6e6f59214610669578063c71b0e1c1461067c578063cd653ee614610685578063ce96cb771461069257600080fd5b8063ba08765214610636578063ba12114014610649578063c63d75b61461046857600080fd5b8063a5b5ff7c11610171578063af17788c1161014b578063af17788c146105dd578063b3d7f6b9146105fd578063b460af9414610610578063b543503e1461062357600080fd5b8063a5b5ff7c146105a4578063a9059cbb146105b7578063aecb019c146105ca57600080fd5b8063830000971461053d5780638a4adf24146105505780638c9fcc691461056357806394bf804d1461057657806395d89b4114610589578063a457c2d71461059157600080fd5b806339509351116102775780634cdad5061161023057806370a082311161020a57806370a08231146104ef57806376079be314610518578063760ee4c61461052b5780638070bb281461053457600080fd5b80634cdad506146104b6578063675ef65c146104c95780636e553f65146104dc57600080fd5b806339509351146104425780633dcbdf4014610455578063402d267d14610468578063424ea9fe1461047d57806344907a401461049057806347786d37146104a357600080fd5b806314269687116102e4578063207a9855116102be578063207a9855146103dd57806323b872dd146103f0578063313ce5671461040357806338d52e0f1461041d57600080fd5b806314269687146103ad57806318160ddd146103c25780632016a0d2146103ca57600080fd5b806301e1d1141461032c57806306fdde031461034757806307a2d13a1461035c578063095ea7b31461036f5780630a28a477146103925780630b231cbe146103a5575b600080fd5b610334610715565b6040519081526020015b60405180910390f35b61034f610796565b60405161033e9190612c37565b61033461036a366004612afd565b610828565b61038261037d366004612a29565b61083b565b604051901515815260200161033e565b6103346103a0366004612afd565b610853565b610334610870565b6103c06103bb366004612afd565b6108a2565b005b603554610334565b6103c06103d836600461295f565b6108e1565b6103346103eb366004612b96565b610b7f565b6103826103fe3660046129e8565b610c11565b61040b610c35565b60405160ff909116815260200161033e565b6065546001600160a01b03165b6040516001600160a01b03909116815260200161033e565b610382610450366004612a29565b610c4f565b610382610463366004612afd565b610c71565b6103346104763660046128ec565b5060001990565b61033461048b366004612afd565b610c90565b61033461049e366004612afd565b610ccf565b6103c06104b1366004612afd565b610cf8565b6103346104c4366004612afd565b610dea565b6103c06104d7366004612a55565b610e0b565b6103346104ea366004612b2f565b610f02565b6103346104fd3660046128ec565b6001600160a01b031660009081526033602052604090205490565b6103c0610526366004612afd565b610f1c565b610334609a5481565b610334609b5481565b61033461054b366004612afd565b610f4f565b60975461042a906001600160a01b031681565b6103c06105713660046128ec565b610f73565b610334610584366004612b2f565b6110bb565b61034f6110d5565b61038261059f366004612a29565b6110e4565b6103c06105b2366004612afd565b61115f565b6103826105c5366004612a29565b6111b0565b6103346105d8366004612afd565b6111be565b6103346105eb3660046128ec565b609e6020526000908152604090205481565b61033461060b366004612afd565b6111ee565b61033461061e366004612b54565b61120f565b6103c06106313660046128ec565b61128b565b610334610644366004612b54565b6113d3565b6103346106573660046128ec565b609f6020526000908152604090205481565b610334610677366004612afd565b611447565b61033460995481565b609d546103829060ff1681565b6103346106a03660046128ec565b611454565b6103346106b33660046128ec565b6114ec565b610334609c5481565b6103346106cf366004612926565b611596565b60985461042a906001600160a01b031681565b6103346115c1565b6103346106fd366004612afd565b611606565b6103c0610710366004612afd565b61161e565b6065546040516370a0823160e01b81523060048201526000916001600160a01b0316906370a082319060240160206040518083038186803b15801561075957600080fd5b505afa15801561076d573d6000803e3d6000fd5b505050506040513d601f19601f820116820180604052508101906107919190612b16565b905090565b6060603680546107a590612f44565b80601f01602080910402602001604051908101604052809291908181526020018280546107d190612f44565b801561081e5780601f106107f35761010080835404028352916020019161081e565b820191906000526020600020905b81548152906001019060200180831161080157829003601f168201915b5050505050905090565b600061083582600061175f565b92915050565b600033610849818585611799565b5060019392505050565b600061083561086183610c90565b61086b9084612d56565b6118bd565b600061087a610715565b6402540be40060995461088d9190612ea3565b610898906064612ea3565b6107919190612d93565b6097546001600160a01b031633146108d55760405162461bcd60e51b81526004016108cc90612c6a565b60405180910390fd5b6108de816118ca565b50565b600054610100900460ff16158080156109015750600054600160ff909116105b8061091b5750303b15801561091b575060005460ff166001145b61097e5760405162461bcd60e51b815260206004820152602e60248201527f496e697469616c697a61626c653a20636f6e747261637420697320616c72656160448201526d191e481a5b9a5d1a585b1a5e995960921b60648201526084016108cc565b6000805460ff1916600117905580156109a1576000805461ff0019166101001790555b609780546001600160a01b0319166001600160a01b0386161790556109cc6402540be400605a612ea3565b609a5564746a528800609c556109e185611974565b610b3283866001600160a01b03166306fdde036040518163ffffffff1660e01b815260040160006040518083038186803b158015610a1e57600080fd5b505afa158015610a32573d6000803e3d6000fd5b505050506040513d6000823e601f3d908101601f19168201604052610a5a9190810190612a8f565b604051602001610a6a9190612c06565b60408051601f1981840301815290829052610a889291602001612bd7565b60405160208183030381529060405283876001600160a01b03166395d89b416040518163ffffffff1660e01b815260040160006040518083038186803b158015610ad157600080fd5b505afa158015610ae5573d6000803e3d6000fd5b505050506040513d6000823e601f3d908101601f19168201604052610b0d9190810190612a8f565b604051602001610b1e929190612bd7565b6040516020818303038152906040526119f9565b8015610b78576000805461ff0019169055604051600181527f7f26b83ff96e1f2b6a682f133852f6798a09c465da95921460cefb38474024989060200160405180910390a15b5050505050565b609754604051637c2fd67560e11b81523060048201528215156024820152604481018490526000916001600160a01b03169063f85facea9060640160206040518083038186803b158015610bd257600080fd5b505afa158015610be6573d6000803e3d6000fd5b505050506040513d601f19601f82011682018060405250810190610c0a9190612b16565b9392505050565b600033610c1f858285611a4c565b610c2a858585611ac6565b506001949350505050565b6000806065546107919190600160a01b900460ff16612d6e565b600033610849818585610c628383611596565b610c6c9190612d56565b611799565b600060995482610c819190612d56565b610c89610715565b1192915050565b609d5460009060ff16610ca557506000919050565b610cb682610cb16115c1565b611b28565b610cc583610cb1856000610b7f565b6108359190612d56565b609d5460009060ff16610ce457506000919050565b61083582610cf3846001610b7f565b611b3a565b609760009054906101000a90046001600160a01b03166001600160a01b03166312d43a516040518163ffffffff1660e01b815260040160206040518083038186803b158015610d4657600080fd5b505afa158015610d5a573d6000803e3d6000fd5b505050506040513d601f19601f82011682018060405250810190610d7e9190612909565b6001600160a01b0316336001600160a01b031614610dae5760405162461bcd60e51b81526004016108cc90612cdb565b609c8190556040518181527f65734b3a997a8977b23500ac4241971bc574d4a6cc04d3aad452dbeec1704f4e906020015b60405180910390a150565b600080610df683610828565b9050610e01816111be565b610c0a9082612f01565b609760009054906101000a90046001600160a01b03166001600160a01b03166312d43a516040518163ffffffff1660e01b815260040160206040518083038186803b158015610e5957600080fd5b505afa158015610e6d573d6000803e3d6000fd5b505050506040513d601f19601f82011682018060405250810190610e919190612909565b6001600160a01b0316336001600160a01b031614610ec15760405162461bcd60e51b81526004016108cc90612cdb565b609d805460ff19168215159081179091556040519081527f2cfb0d9143d0d1ab82bf5dd363404445eefad3e5811ae2b96c011ea3028514b790602001610ddf565b600080610f0e84611606565b9050610c0a33848684611b57565b6097546001600160a01b03163314610f465760405162461bcd60e51b81526004016108cc90612c6a565b6108de81611c51565b609d5460009060ff16610f6457506000919050565b61083582610cb1846001610b7f565b609760009054906101000a90046001600160a01b03166001600160a01b03166312d43a516040518163ffffffff1660e01b815260040160206040518083038186803b158015610fc157600080fd5b505afa158015610fd5573d6000803e3d6000fd5b505050506040513d601f19601f82011682018060405250810190610ff99190612909565b6001600160a01b0316336001600160a01b0316146110295760405162461bcd60e51b81526004016108cc90612cdb565b6001600160a01b0381166110715760405162461bcd60e51b815260206004820152600f60248201526e105111149154d4d7d2539590531251608a1b60448201526064016108cc565b609880546001600160a01b0319166001600160a01b0383169081179091556040517f249069287af94b8b3a281fa5920b6678be953a1200f42319ebf2308bf91e647890600090a250565b6000806110c7846111ee565b9050610c0a33848387611b57565b6060603780546107a590612f44565b600033816110f28286611596565b9050838110156111525760405162461bcd60e51b815260206004820152602560248201527f45524332303a2064656372656173656420616c6c6f77616e63652062656c6f77604482015264207a65726f60d81b60648201526084016108cc565b610c2a8286868403611799565b6097546001600160a01b031633146111895760405162461bcd60e51b81526004016108cc90612c6a565b6108de61119e6065546001600160a01b031690565b6097546001600160a01b031683611cea565b600033610849818585611ac6565b609d5460009060ff166111d357506000919050565b6111df82610cf36115c1565b610cc583610cf3856000610b7f565b6000806111fa83611d4d565b905061120581610f4f565b610c0a9082612d56565b600061121a82611454565b8411156112695760405162461bcd60e51b815260206004820152601f60248201527f455243343632363a207769746864726177206d6f7265207468616e206d61780060448201526064016108cc565b600061127485610853565b90506112833385858885611d5a565b949350505050565b609760009054906101000a90046001600160a01b03166001600160a01b03166312d43a516040518163ffffffff1660e01b815260040160206040518083038186803b1580156112d957600080fd5b505afa1580156112ed573d6000803e3d6000fd5b505050506040513d601f19601f820116820180604052508101906113119190612909565b6001600160a01b0316336001600160a01b0316146113415760405162461bcd60e51b81526004016108cc90612cdb565b6001600160a01b0381166113895760405162461bcd60e51b815260206004820152600f60248201526e105111149154d4d7d2539590531251608a1b60448201526064016108cc565b609780546001600160a01b0319166001600160a01b0383169081179091556040517fcdba42b90a1db6ef05bf5758b36301b44ac50226364e050628807a6ceef24bc290600090a250565b60006113de826114ec565b84111561142d5760405162461bcd60e51b815260206004820152601d60248201527f455243343632363a2072656465656d206d6f7265207468616e206d617800000060448201526064016108cc565b600061143885610dea565b90506112833385858489611d5a565b6000610835826000611e4d565b600080609a546402540be40060995461146d9190612ea3565b611478906064612ea3565b6114829190612d93565b61148a610715565b6114949190612ec2565b9050600081126114a457806114a7565b60005b905060006114d46114cd856001600160a01b031660009081526033602052604090205490565b600061175f565b9050818110156114e5579392505050565b5092915050565b600080609a546402540be4006099546115059190612ea3565b611510906064612ea3565b61151a9190612d93565b611522610715565b61152c9190612ec2565b90506000811261153c578061153f565b60005b9050600061156561036a856001600160a01b031660009081526033602052604090205490565b90508181101561158d575050506001600160a01b031660009081526033602052604090205490565b61128382611447565b6001600160a01b03918216600090815260346020908152604080832093909416825291909152205490565b60975460408051631530c68960e31b815290516000926001600160a01b03169163a9863448916004808301926020929190829003018186803b15801561075957600080fd5b600061083561161483610ccf565b6106779084612f01565b609760009054906101000a90046001600160a01b03166001600160a01b03166312d43a516040518163ffffffff1660e01b815260040160206040518083038186803b15801561166c57600080fd5b505afa158015611680573d6000803e3d6000fd5b505050506040513d601f19601f820116820180604052508101906116a49190612909565b6001600160a01b0316336001600160a01b0316146116d45760405162461bcd60e51b81526004016108cc90612cdb565b6116e46402540be4006064612ea3565b811061172a5760405162461bcd60e51b81526020600482015260156024820152740a890a48aa6909e9888be8ab0868a8a88a6be9a82b605b1b60448201526064016108cc565b609a8190556040518181527fdf3c43b92e9d230f33e561c35b51e37fe0e7a9e14a51670de61c5527c674122090602001610ddf565b6000610c0a61176c610715565b611777906001612d56565b6117836000600a612df8565b6035546117909190612d56565b85919085611e7d565b6001600160a01b0383166117fb5760405162461bcd60e51b8152602060048201526024808201527f45524332303a20617070726f76652066726f6d20746865207a65726f206164646044820152637265737360e01b60648201526084016108cc565b6001600160a01b03821661185c5760405162461bcd60e51b815260206004820152602260248201527f45524332303a20617070726f766520746f20746865207a65726f206164647265604482015261737360f01b60648201526084016108cc565b6001600160a01b0383811660008181526034602090815260408083209487168084529482529182902085905590518481527f8c5be1e5ebec7d5bd14f71427d1e84f3dd0314c0f7b2291e5b200ac8c7c3b925910160405180910390a3505050565b6000610835826001611e4d565b6099546118d79082612d56565b6118df610715565b101561192d5760405162461bcd60e51b815260206004820181905260248201527f524553455256455f414d4f554e545f455843454544535f415641494c41424c4560448201526064016108cc565b806099600082825461193f9190612d56565b90915550506040518181527f2c4de6f597c09e3008257b74d3d91bc3d00fa80febbb17b07a352d01b832cc5890602001610ddf565b600054610100900460ff1661199b5760405162461bcd60e51b81526004016108cc90612c90565b6000806119a783611eda565b91509150816119b75760126119b9565b805b606580546001600160a01b039095166001600160a01b031960ff93909316600160a01b02929092166001600160a81b031990951694909417179092555050565b600054610100900460ff16611a205760405162461bcd60e51b81526004016108cc90612c90565b8151611a339060369060208501906127fd565b508051611a479060379060208401906127fd565b505050565b6000611a588484611596565b90506000198114611ac05781811015611ab35760405162461bcd60e51b815260206004820152601d60248201527f45524332303a20696e73756666696369656e7420616c6c6f77616e636500000060448201526064016108cc565b611ac08484848403611799565b50505050565b816001600160a01b0316836001600160a01b03167fb4b510017fa3548bf934bbeafb570ebc4f19982ace19ae88d2de59a13addebf183611b0585610828565b6040805192835260208301919091520160405180910390a3611a47838383611fb6565b6000610c0a8383620186a06001611e7d565b6000610c0a82611b4d81620186a0612d56565b8591906001611e7d565b609c5482611b63610715565b611b6d9190612d56565b10611bb15760405162461bcd60e51b815260206004820152601460248201527311115413d4d25517d0d05417d094915050d2115160621b60448201526064016108cc565b6000611bbc83610ccf565b9050611bca85858585612161565b8015610b7857611be561119e6065546001600160a01b031690565b609754604051635b898b7560e01b815260048101839052600060248201526001600160a01b0390911690635b898b7590604401600060405180830381600087803b158015611c3257600080fd5b505af1158015611c46573d6000803e3d6000fd5b505050505050505050565b806099541015611ca35760405162461bcd60e51b815260206004820181905260248201527f52454c454153455f414d4f554e545f455843454544535f415641494c41424c4560448201526064016108cc565b8060996000828254611cb59190612f01565b90915550506040518181527f774dd8563c62b955681af671bbf01ac0b50b41f089a9830a89586451cd5630da90602001610ddf565b6040516001600160a01b038316602482015260448101829052611a4790849063a9059cbb60e01b906064015b60408051601f198184030181529190526020810180516001600160e01b03166001600160e01b0319909316929092179091526121df565b600061083582600161175f565b6000611d6583610c90565b9050611d7486868686866122b4565b8015611df557611d8f61119e6065546001600160a01b031690565b609754604051635b898b7560e01b815260048101839052600060248201526001600160a01b0390911690635b898b7590604401600060405180830381600087803b158015611ddc57600080fd5b505af1158015611df0573d6000803e3d6000fd5b505050505b609a54611e00610870565b10611e455760405162461bcd60e51b81526020600482015260156024820152740aaa8929892b482a8929e9cbea482a8929ebe9a82b605b1b60448201526064016108cc565b505050505050565b6000610c0a611e5d82600a612df8565b603554611e6a9190612d56565b611e72610715565b611790906001612d56565b600080611e8b868686612360565b90506001836002811115611ea157611ea1612fab565b148015611ebe575060008480611eb957611eb9612f95565b868809115b15611ed157611ece600182612d56565b90505b95945050505050565b60408051600481526024810182526020810180516001600160e01b031663313ce56760e01b17905290516000918291829182916001600160a01b03871691611f2191612bbb565b600060405180830381855afa9150503d8060008114611f5c576040519150601f19603f3d011682016040523d82523d6000602084013e611f61565b606091505b5091509150818015611f7557506020815110155b15611fa957600081806020019051810190611f909190612b16565b905060ff8111611fa7576001969095509350505050565b505b5060009485945092505050565b6001600160a01b03831661201a5760405162461bcd60e51b815260206004820152602560248201527f45524332303a207472616e736665722066726f6d20746865207a65726f206164604482015264647265737360d81b60648201526084016108cc565b6001600160a01b03821661207c5760405162461bcd60e51b815260206004820152602360248201527f45524332303a207472616e7366657220746f20746865207a65726f206164647260448201526265737360e81b60648201526084016108cc565b6001600160a01b038316600090815260336020526040902054818110156120f45760405162461bcd60e51b815260206004820152602660248201527f45524332303a207472616e7366657220616d6f756e7420657863656564732062604482015265616c616e636560d01b60648201526084016108cc565b6001600160a01b0380851660008181526033602052604080822086860390559286168082529083902080548601905591517fddf252ad1be2c89b69c2b068fc378daa952ba7f163c4a11628f55a4df523b3ef906121549086815260200190565b60405180910390a3611ac0565b606554612179906001600160a01b031685308561244b565b6121838382612483565b826001600160a01b0316846001600160a01b03167fdcbc1c05240f31ff3ad067ef1ee35ce4997762752e3a095284754544f4c709d784846040516121d1929190918252602082015260400190565b60405180910390a350505050565b6000612234826040518060400160405280602081526020017f5361666545524332303a206c6f772d6c6576656c2063616c6c206661696c6564815250856001600160a01b03166125449092919063ffffffff16565b90508051600014806122555750808060200190518101906122559190612a72565b611a475760405162461bcd60e51b815260206004820152602a60248201527f5361666545524332303a204552433230206f7065726174696f6e20646964206e6044820152691bdd081cdd58d8d9595960b21b60648201526084016108cc565b826001600160a01b0316856001600160a01b0316146122d8576122d8838683611a4c565b6122e28382612553565b6065546122f9906001600160a01b03168584611cea565b826001600160a01b0316846001600160a01b0316866001600160a01b03167ffbde797d201c681b91056529119e0b02407c7bb96a4a2c75c01fc9667232c8db8585604051612351929190918252602082015260400190565b60405180910390a45050505050565b60008080600019858709858702925082811083820303915050806000141561239b5783828161239157612391612f95565b0492505050610c0a565b8084116123e25760405162461bcd60e51b81526020600482015260156024820152744d6174683a206d756c446976206f766572666c6f7760581b60448201526064016108cc565b60008486880960026001871981018816978890046003810283188082028403028082028403028082028403028082028403028082028403029081029092039091026000889003889004909101858311909403939093029303949094049190911702949350505050565b6040516001600160a01b0380851660248301528316604482015260648101829052611ac09085906323b872dd60e01b90608401611d16565b6001600160a01b0382166124d95760405162461bcd60e51b815260206004820152601f60248201527f45524332303a206d696e7420746f20746865207a65726f20616464726573730060448201526064016108cc565b80603560008282546124eb9190612d56565b90915550506001600160a01b0382166000818152603360209081526040808320805486019055518481527fddf252ad1be2c89b69c2b068fc378daa952ba7f163c4a11628f55a4df523b3ef910160405180910390a35050565b60606112838484600085612687565b6001600160a01b0382166125b35760405162461bcd60e51b815260206004820152602160248201527f45524332303a206275726e2066726f6d20746865207a65726f206164647265736044820152607360f81b60648201526084016108cc565b6001600160a01b038216600090815260336020526040902054818110156126275760405162461bcd60e51b815260206004820152602260248201527f45524332303a206275726e20616d6f756e7420657863656564732062616c616e604482015261636560f01b60648201526084016108cc565b6001600160a01b03831660008181526033602090815260408083208686039055603580548790039055518581529192917fddf252ad1be2c89b69c2b068fc378daa952ba7f163c4a11628f55a4df523b3ef910160405180910390a3505050565b6060824710156126e85760405162461bcd60e51b815260206004820152602660248201527f416464726573733a20696e73756666696369656e742062616c616e636520666f6044820152651c8818d85b1b60d21b60648201526084016108cc565b600080866001600160a01b031685876040516127049190612bbb565b60006040518083038185875af1925050503d8060008114612741576040519150601f19603f3d011682016040523d82523d6000602084013e612746565b606091505b509150915061275787838387612762565b979650505050505050565b606083156127ce5782516127c7576001600160a01b0385163b6127c75760405162461bcd60e51b815260206004820152601d60248201527f416464726573733a2063616c6c20746f206e6f6e2d636f6e747261637400000060448201526064016108cc565b5081611283565b61128383838151156127e35781518083602001fd5b8060405162461bcd60e51b81526004016108cc9190612c37565b82805461280990612f44565b90600052602060002090601f01602090048101928261282b5760008555612871565b82601f1061284457805160ff1916838001178555612871565b82800160010185558215612871579182015b82811115612871578251825591602001919060010190612856565b5061287d929150612881565b5090565b5b8082111561287d5760008155600101612882565b600082601f8301126128a757600080fd5b81356128ba6128b582612d2e565b612cfd565b8181528460208386010111156128cf57600080fd5b816020850160208301376000918101602001919091529392505050565b6000602082840312156128fe57600080fd5b8135610c0a81612fd7565b60006020828403121561291b57600080fd5b8151610c0a81612fd7565b6000806040838503121561293957600080fd5b823561294481612fd7565b9150602083013561295481612fd7565b809150509250929050565b6000806000806080858703121561297557600080fd5b843561298081612fd7565b9350602085013561299081612fd7565b9250604085013567ffffffffffffffff808211156129ad57600080fd5b6129b988838901612896565b935060608701359150808211156129cf57600080fd5b506129dc87828801612896565b91505092959194509250565b6000806000606084860312156129fd57600080fd5b8335612a0881612fd7565b92506020840135612a1881612fd7565b929592945050506040919091013590565b60008060408385031215612a3c57600080fd5b8235612a4781612fd7565b946020939093013593505050565b600060208284031215612a6757600080fd5b8135610c0a81612fec565b600060208284031215612a8457600080fd5b8151610c0a81612fec565b600060208284031215612aa157600080fd5b815167ffffffffffffffff811115612ab857600080fd5b8201601f81018413612ac957600080fd5b8051612ad76128b582612d2e565b818152856020838501011115612aec57600080fd5b611ed1826020830160208601612f18565b600060208284031215612b0f57600080fd5b5035919050565b600060208284031215612b2857600080fd5b5051919050565b60008060408385031215612b4257600080fd5b82359150602083013561295481612fd7565b600080600060608486031215612b6957600080fd5b833592506020840135612b7b81612fd7565b91506040840135612b8b81612fd7565b809150509250925092565b60008060408385031215612ba957600080fd5b82359150602083013561295481612fec565b60008251612bcd818460208701612f18565b9190910192915050565b60008351612be9818460208801612f18565b835190830190612bfd818360208801612f18565b01949350505050565b680102a3930b731b432960bd1b815260008251612c2a816009850160208701612f18565b9190910160090192915050565b6020815260008251806020840152612c56816040850160208701612f18565b601f01601f19169190910160400192915050565b6020808252600c908201526b4d414e414745525f4f4e4c5960a01b604082015260600190565b6020808252602b908201527f496e697469616c697a61626c653a20636f6e7472616374206973206e6f74206960408201526a6e697469616c697a696e6760a81b606082015260800190565b602080825260089082015267474f565f4f4e4c5960c01b604082015260600190565b604051601f8201601f1916810167ffffffffffffffff81118282101715612d2657612d26612fc1565b604052919050565b600067ffffffffffffffff821115612d4857612d48612fc1565b50601f01601f191660200190565b60008219821115612d6957612d69612f7f565b500190565b600060ff821660ff84168060ff03821115612d8b57612d8b612f7f565b019392505050565b600082612db057634e487b7160e01b600052601260045260246000fd5b500490565b600181815b80851115612df0578160001904821115612dd657612dd6612f7f565b80851615612de357918102915b93841c9390800290612dba565b509250929050565b6000610c0a60ff841683600082612e1157506001610835565b81612e1e57506000610835565b8160018114612e345760028114612e3e57612e5a565b6001915050610835565b60ff841115612e4f57612e4f612f7f565b50506001821b610835565b5060208310610133831016604e8410600b8410161715612e7d575081810a610835565b612e878383612db5565b8060001904821115612e9b57612e9b612f7f565b029392505050565b6000816000190483118215151615612ebd57612ebd612f7f565b500290565b60008083128015600160ff1b850184121615612ee057612ee0612f7f565b6001600160ff1b0384018313811615612efb57612efb612f7f565b50500390565b600082821015612f1357612f13612f7f565b500390565b60005b83811015612f33578181015183820152602001612f1b565b83811115611ac05750506000910152565b600181811c90821680612f5857607f821691505b60208210811415612f7957634e487b7160e01b600052602260045260246000fd5b50919050565b634e487b7160e01b600052601160045260246000fd5b634e487b7160e01b600052601260045260246000fd5b634e487b7160e01b600052602160045260246000fd5b634e487b7160e01b600052604160045260246000fd5b6001600160a01b03811681146108de57600080fd5b80151581146108de57600080fdfea2646970667358221220045f1a31a4a8d92c366c627f4a80d8649f7cf11cd375075cf492113c96e00b2864736f6c63430008070033","linkReferences":{}},"methodIdentifiers":{"allowance(address,address)":"dd62ed3e","approve(address,uint256)":"095ea7b3","asset()":"38d52e0f","balanceOf(address)":"70a08231","balancingFee(uint256,bool)":"207a9855","collateralHealthFee()":"ede5bed1","convertToAssets(uint256)":"07a2d13a","convertToShares(uint256)":"c6e6f592","decimals()":"313ce567","decreaseAllowance(address,uint256)":"a457c2d7","deposit(uint256,address)":"6e553f65","depositCap()":"dbd5edc7","feesOn()":"cd653ee6","getDepositFeesRaw(uint256)":"83000097","getDepositFeesTotal(uint256)":"44907a40","getWithdrawalFeesRaw(uint256)":"424ea9fe","getWithdrawalFeesTotal(uint256)":"aecb019c","hasLiquidity(uint256)":"3dcbdf40","increaseAllowance(address,uint256)":"39509351","initialize(address,address,string,string)":"2016a0d2","maxDeposit(address)":"402d267d","maxMint(address)":"c63d75b6","maxRedeem(address)":"d905777e","maxWithdraw(address)":"ce96cb77","mint(uint256,address)":"94bf804d","name()":"06fdde03","previewDeposit(uint256)":"ef8b30f7","previewMint(uint256)":"b3d7f6b9","previewRedeem(uint256)":"4cdad506","previewWithdraw(uint256)":"0a28a477","principalAssetsDeposited(address)":"ba121140","principalSharesDeposited(address)":"af17788c","redeem(uint256,address,address)":"ba087652","releaseBalance(uint256)":"76079be3","reserveBalance(uint256)":"14269687","setCap(uint256)":"47786d37","setFeesOn(bool)":"675ef65c","setVaultManager(address)":"b543503e","setVeTranche(address)":"8c9fcc69","setWithdrawThreshold(uint256)":"feefd7dd","symbol()":"95d89b41","totalAssets()":"01e1d114","totalPrincipalDeposited()":"8070bb28","totalReserved()":"c71b0e1c","totalSupply()":"18160ddd","transfer(address,uint256)":"a9059cbb","transferFrom(address,address,uint256)":"23b872dd","utilizationRatio()":"0b231cbe","vaultManager()":"8a4adf24","veTranche()":"e53a788a","withdraw(uint256,address,address)":"b460af94","withdrawAsVaultManager(uint256)":"a5b5ff7c","withdrawThreshold()":"760ee4c6"},"id":112}