{"abi":[{"type":"constructor","inputs":[],"stateMutability":"nonpayable"},{"type":"function","name":"getAccRolloverFeesLong","inputs":[{"name":"pairIndex","type":"uint256","internalType":"uint256"}],"outputs":[{"name":"","type":"uint256","internalType":"uint256"}],"stateMutability":"view"},{"type":"function","name":"getAccRolloverFeesShort","inputs":[{"name":"pairIndex","type":"uint256","internalType":"uint256"}],"outputs":[{"name":"","type":"uint256","internalType":"uint256"}],"stateMutability":"view"},{"type":"function","name":"getAccRolloverFeesUpdateBlock","inputs":[{"name":"pairIndex","type":"uint256","internalType":"uint256"}],"outputs":[{"name":"","type":"uint256","internalType":"uint256"}],"stateMutability":"view"},{"type":"function","name":"getBlendedSkew","inputs":[{"name":"_pairIndex","type":"uint256","internalType":"uint256"},{"name":"_long","type":"bool","internalType":"bool"},{"name":"_longOI","type":"uint256","internalType":"uint256"},{"name":"_shortOI","type":"uint256","internalType":"uint256"}],"outputs":[{"name":"","type":"uint256","internalType":"uint256"}],"stateMutability":"view"},{"type":"function","name":"getBlendedUtilizationRatio","inputs":[{"name":"_pairIndex","type":"uint256","internalType":"uint256"},{"name":"_longOI","type":"uint256","internalType":"uint256"},{"name":"_shortOI","type":"uint256","internalType":"uint256"}],"outputs":[{"name":"","type":"uint256","internalType":"uint256"}],"stateMutability":"view"},{"type":"function","name":"getOnePercentDepthAbove","inputs":[{"name":"pairIndex","type":"uint256","internalType":"uint256"}],"outputs":[{"name":"","type":"uint256","internalType":"uint256"}],"stateMutability":"view"},{"type":"function","name":"getOnePercentDepthBelow","inputs":[{"name":"pairIndex","type":"uint256","internalType":"uint256"}],"outputs":[{"name":"","type":"uint256","internalType":"uint256"}],"stateMutability":"view"},{"type":"function","name":"getPairInfos","inputs":[{"name":"indices","type":"uint256[]","internalType":"uint256[]"}],"outputs":[{"name":"","type":"tuple[]","internalType":"struct IPairInfos.PairParams[]","components":[{"name":"onePercentDepthAbove","type":"uint256","internalType":"uint256"},{"name":"onePercentDepthBelow","type":"uint256","internalType":"uint256"},{"name":"rolloverFeePerBlockP","type":"uint256","internalType":"uint256"}]},{"name":"","type":"tuple[]","internalType":"struct IPairInfos.PairRolloverFees[]","components":[{"name":"accPerOiLong","type":"uint256","internalType":"uint256"},{"name":"accPerOiShort","type":"uint256","internalType":"uint256"},{"name":"lastUpdateBlock","type":"uint256","internalType":"uint256"}]}],"stateMutability":"view"},{"type":"function","name":"getPendingAccRolloverFees","inputs":[{"name":"pairIndex","type":"uint256","internalType":"uint256"}],"outputs":[{"name":"valueLong","type":"uint256","internalType":"uint256"},{"name":"valueShort","type":"uint256","internalType":"uint256"}],"stateMutability":"view"},{"type":"function","name":"getPriceImpactSpread","inputs":[{"name":"_pairIndex","type":"uint256","internalType":"uint256"},{"name":"_isBuy","type":"bool","internalType":"bool"},{"name":"_leveragePosition","type":"uint256","internalType":"uint256"}],"outputs":[{"name":"spread","type":"int256","internalType":"int256"}],"stateMutability":"view"},{"type":"function","name":"getRolloverFeePerBlockP","inputs":[{"name":"pairIndex","type":"uint256","internalType":"uint256"}],"outputs":[{"name":"","type":"uint256","internalType":"uint256"}],"stateMutability":"view"},{"type":"function","name":"getSkewImpactSpread","inputs":[{"name":"_pairIndex","type":"uint256","internalType":"uint256"},{"name":"_isBuy","type":"bool","internalType":"bool"},{"name":"_leveragePosition","type":"uint256","internalType":"uint256"}],"outputs":[{"name":"spread","type":"int256","internalType":"int256"}],"stateMutability":"view"},{"type":"function","name":"getTradeInitialAccRolloverFeesPerCollateral","inputs":[{"name":"trader","type":"address","internalType":"address"},{"name":"pairIndex","type":"uint256","internalType":"uint256"},{"name":"index","type":"uint256","internalType":"uint256"}],"outputs":[{"name":"","type":"uint256","internalType":"uint256"}],"stateMutability":"view"},{"type":"function","name":"getTradeLiquidationPrice","inputs":[{"name":"trader","type":"address","internalType":"address"},{"name":"pairIndex","type":"uint256","internalType":"uint256"},{"name":"index","type":"uint256","internalType":"uint256"},{"name":"openPrice","type":"uint256","internalType":"uint256"},{"name":"long","type":"bool","internalType":"bool"},{"name":"collateral","type":"uint256","internalType":"uint256"},{"name":"leverage","type":"uint256","internalType":"uint256"}],"outputs":[{"name":"","type":"uint256","internalType":"uint256"}],"stateMutability":"view"},{"type":"function","name":"getTradeLiquidationPricePure","inputs":[{"name":"openPrice","type":"uint256","internalType":"uint256"},{"name":"long","type":"bool","internalType":"bool"},{"name":"collateral","type":"uint256","internalType":"uint256"},{"name":"leverage","type":"uint256","internalType":"uint256"},{"name":"rolloverFee","type":"uint256","internalType":"uint256"}],"outputs":[{"name":"","type":"uint256","internalType":"uint256"}],"stateMutability":"view"},{"type":"function","name":"getTradePriceImpact","inputs":[{"name":"openPrice","type":"uint256","internalType":"uint256"},{"name":"pairIndex","type":"uint256","internalType":"uint256"},{"name":"long","type":"bool","internalType":"bool"},{"name":"tradeOpenInterest","type":"uint256","internalType":"uint256"}],"outputs":[{"name":"priceAfterImpact","type":"uint256","internalType":"uint256"}],"stateMutability":"view"},{"type":"function","name":"getTradeRolloverFee","inputs":[{"name":"trader","type":"address","internalType":"address"},{"name":"pairIndex","type":"uint256","internalType":"uint256"},{"name":"index","type":"uint256","internalType":"uint256"},{"name":"long","type":"bool","internalType":"bool"},{"name":"collateral","type":"uint256","internalType":"uint256"},{"name":"leverage","type":"uint256","internalType":"uint256"}],"outputs":[{"name":"","type":"uint256","internalType":"uint256"}],"stateMutability":"view"},{"type":"function","name":"getTradeRolloverFeePure","inputs":[{"name":"accRolloverFeesPerOi","type":"uint256","internalType":"uint256"},{"name":"endAccRolloverFeesPerOi","type":"uint256","internalType":"uint256"},{"name":"collateral","type":"uint256","internalType":"uint256"},{"name":"leverage","type":"uint256","internalType":"uint256"}],"outputs":[{"name":"","type":"uint256","internalType":"uint256"}],"stateMutability":"pure"},{"type":"function","name":"getTradeValue","inputs":[{"name":"_trade","type":"tuple","internalType":"struct ITradingStorage.Trade","components":[{"name":"trader","type":"address","internalType":"address"},{"name":"pairIndex","type":"uint256","internalType":"uint256"},{"name":"index","type":"uint256","internalType":"uint256"},{"name":"initialPosToken","type":"uint256","internalType":"uint256"},{"name":"positionSizeUSDC","type":"uint256","internalType":"uint256"},{"name":"openPrice","type":"uint256","internalType":"uint256"},{"name":"buy","type":"bool","internalType":"bool"},{"name":"leverage","type":"uint256","internalType":"uint256"},{"name":"tp","type":"uint256","internalType":"uint256"},{"name":"sl","type":"uint256","internalType":"uint256"},{"name":"timestamp","type":"uint256","internalType":"uint256"}]},{"name":"collateral","type":"uint256","internalType":"uint256"},{"name":"percentProfit","type":"int256","internalType":"int256"},{"name":"closingFee","type":"uint256","internalType":"uint256"},{"name":"_tier","type":"uint256","internalType":"uint256"}],"outputs":[{"name":"amount","type":"uint256","internalType":"uint256"},{"name":"pnl","type":"int256","internalType":"int256"},{"name":"fees","type":"uint256","internalType":"uint256"}],"stateMutability":"nonpayable"},{"type":"function","name":"getTradeValuePure","inputs":[{"name":"collateral","type":"uint256","internalType":"uint256"},{"name":"percentProfit","type":"int256","internalType":"int256"},{"name":"rolloverFee","type":"uint256","internalType":"uint256"},{"name":"closingFee","type":"uint256","internalType":"uint256"},{"name":"lossProtection","type":"uint256","internalType":"uint256"}],"outputs":[{"name":"","type":"uint256","internalType":"uint256"},{"name":"","type":"int256","internalType":"int256"},{"name":"","type":"uint256","internalType":"uint256"}],"stateMutability":"view"},{"type":"function","name":"initialize","inputs":[{"name":"_storageT","type":"address","internalType":"address"},{"name":"_pairsStorage","type":"address","internalType":"address"}],"outputs":[],"stateMutability":"nonpayable"},{"type":"function","name":"keeper","inputs":[],"outputs":[{"name":"","type":"address","internalType":"address"}],"stateMutability":"view"},{"type":"function","name":"liqThreshold","inputs":[],"outputs":[{"name":"","type":"uint256","internalType":"uint256"}],"stateMutability":"view"},{"type":"function","name":"longSkewConfig","inputs":[{"name":"","type":"uint256","internalType":"uint256"},{"name":"","type":"uint256","internalType":"uint256"}],"outputs":[{"name":"","type":"uint256","internalType":"uint256"}],"stateMutability":"view"},{"type":"function","name":"lossProtectionNumTiers","inputs":[{"name":"","type":"uint256","internalType":"uint256"}],"outputs":[{"name":"","type":"uint256","internalType":"uint256"}],"stateMutability":"view"},{"type":"function","name":"lossProtectionTier","inputs":[{"name":"_trade","type":"tuple","internalType":"struct ITradingStorage.Trade","components":[{"name":"trader","type":"address","internalType":"address"},{"name":"pairIndex","type":"uint256","internalType":"uint256"},{"name":"index","type":"uint256","internalType":"uint256"},{"name":"initialPosToken","type":"uint256","internalType":"uint256"},{"name":"positionSizeUSDC","type":"uint256","internalType":"uint256"},{"name":"openPrice","type":"uint256","internalType":"uint256"},{"name":"buy","type":"bool","internalType":"bool"},{"name":"leverage","type":"uint256","internalType":"uint256"},{"name":"tp","type":"uint256","internalType":"uint256"},{"name":"sl","type":"uint256","internalType":"uint256"},{"name":"timestamp","type":"uint256","internalType":"uint256"}]}],"outputs":[{"name":"","type":"uint256","internalType":"uint256"}],"stateMutability":"view"},{"type":"function","name":"manager","inputs":[],"outputs":[{"name":"","type":"address","internalType":"address"}],"stateMutability":"view"},{"type":"function","name":"pairParams","inputs":[{"name":"","type":"uint256","internalType":"uint256"}],"outputs":[{"name":"onePercentDepthAbove","type":"uint256","internalType":"uint256"},{"name":"onePercentDepthBelow","type":"uint256","internalType":"uint256"},{"name":"rolloverFeePerBlockP","type":"uint256","internalType":"uint256"}],"stateMutability":"view"},{"type":"function","name":"pairRolloverFees","inputs":[{"name":"","type":"uint256","internalType":"uint256"}],"outputs":[{"name":"accPerOiLong","type":"uint256","internalType":"uint256"},{"name":"accPerOiShort","type":"uint256","internalType":"uint256"},{"name":"lastUpdateBlock","type":"uint256","internalType":"uint256"}],"stateMutability":"view"},{"type":"function","name":"pairsStorage","inputs":[],"outputs":[{"name":"","type":"address","internalType":"contract IPairStorage"}],"stateMutability":"view"},{"type":"function","name":"setKeeper","inputs":[{"name":"_keeper","type":"address","internalType":"address"}],"outputs":[],"stateMutability":"nonpayable"},{"type":"function","name":"setLossProtectionConfig","inputs":[{"name":"_pairIndex","type":"uint256","internalType":"uint256"},{"name":"_longSkewConfig","type":"uint256[]","internalType":"uint256[]"},{"name":"_shortSkewConfig","type":"uint256[]","internalType":"uint256[]"}],"outputs":[],"stateMutability":"nonpayable"},{"type":"function","name":"setManager","inputs":[{"name":"_manager","type":"address","internalType":"address"}],"outputs":[],"stateMutability":"nonpayable"},{"type":"function","name":"setOnePercentDepth","inputs":[{"name":"pairIndex","type":"uint256","internalType":"uint256"},{"name":"valueAbove","type":"uint256","internalType":"uint256"},{"name":"valueBelow","type":"uint256","internalType":"uint256"}],"outputs":[],"stateMutability":"nonpayable"},{"type":"function","name":"setOnePercentDepthArray","inputs":[{"name":"indices","type":"uint256[]","internalType":"uint256[]"},{"name":"valuesAbove","type":"uint256[]","internalType":"uint256[]"},{"name":"valuesBelow","type":"uint256[]","internalType":"uint256[]"}],"outputs":[],"stateMutability":"nonpayable"},{"type":"function","name":"setPairParams","inputs":[{"name":"pairIndex","type":"uint256","internalType":"uint256"},{"name":"value","type":"tuple","internalType":"struct IPairInfos.PairParams","components":[{"name":"onePercentDepthAbove","type":"uint256","internalType":"uint256"},{"name":"onePercentDepthBelow","type":"uint256","internalType":"uint256"},{"name":"rolloverFeePerBlockP","type":"uint256","internalType":"uint256"}]}],"outputs":[],"stateMutability":"nonpayable"},{"type":"function","name":"setPairParamsArray","inputs":[{"name":"indices","type":"uint256[]","internalType":"uint256[]"},{"name":"values","type":"tuple[]","internalType":"struct IPairInfos.PairParams[]","components":[{"name":"onePercentDepthAbove","type":"uint256","internalType":"uint256"},{"name":"onePercentDepthBelow","type":"uint256","internalType":"uint256"},{"name":"rolloverFeePerBlockP","type":"uint256","internalType":"uint256"}]}],"outputs":[],"stateMutability":"nonpayable"},{"type":"function","name":"setRolloverFeePerBlockP","inputs":[{"name":"pairIndex","type":"uint256","internalType":"uint256"},{"name":"value","type":"uint256","internalType":"uint256"}],"outputs":[],"stateMutability":"nonpayable"},{"type":"function","name":"shortSkewConfig","inputs":[{"name":"","type":"uint256","internalType":"uint256"},{"name":"","type":"uint256","internalType":"uint256"}],"outputs":[{"name":"","type":"uint256","internalType":"uint256"}],"stateMutability":"view"},{"type":"function","name":"storageT","inputs":[],"outputs":[{"name":"","type":"address","internalType":"contract ITradingStorage"}],"stateMutability":"view"},{"type":"function","name":"storeTradeInitialAccFees","inputs":[{"name":"trader","type":"address","internalType":"address"},{"name":"pairIndex","type":"uint256","internalType":"uint256"},{"name":"index","type":"uint256","internalType":"uint256"},{"name":"long","type":"bool","internalType":"bool"}],"outputs":[],"stateMutability":"nonpayable"},{"type":"function","name":"tradeInitialAccFees","inputs":[{"name":"","type":"address","internalType":"address"},{"name":"","type":"uint256","internalType":"uint256"},{"name":"","type":"uint256","internalType":"uint256"}],"outputs":[{"name":"rollover","type":"uint256","internalType":"uint256"},{"name":"openedAfterUpdate","type":"bool","internalType":"bool"}],"stateMutability":"view"},{"type":"function","name":"udpateLiquidationThreshold","inputs":[{"name":"_newThreshold","type":"uint256","internalType":"uint256"}],"outputs":[],"stateMutability":"nonpayable"},{"type":"event","name":"AccRolloverFeesStored","inputs":[{"name":"pairIndex","type":"uint256","indexed":false,"internalType":"uint256"},{"name":"valueLong","type":"uint256","indexed":false,"internalType":"uint256"},{"name":"valueShort","type":"uint256","indexed":false,"internalType":"uint256"}],"anonymous":false},{"type":"event","name":"CoeffUpdated","inputs":[{"name":"multiplierCoeffMax","type":"uint256","indexed":false,"internalType":"uint256"},{"name":"groupId","type":"uint256","indexed":false,"internalType":"uint256"}],"anonymous":false},{"type":"event","name":"DenomUpdated","inputs":[{"name":"multiplierDenom","type":"uint256","indexed":false,"internalType":"uint256"},{"name":"groupId","type":"uint256","indexed":false,"internalType":"uint256"}],"anonymous":false},{"type":"event","name":"FeesCharged","inputs":[{"name":"buy","type":"bool","indexed":false,"internalType":"bool"},{"name":"collateral","type":"uint256","indexed":false,"internalType":"uint256"},{"name":"leverage","type":"uint256","indexed":false,"internalType":"uint256"},{"name":"percentProfit","type":"int256","indexed":false,"internalType":"int256"},{"name":"r","type":"uint256","indexed":false,"internalType":"uint256"},{"name":"closingFee","type":"uint256","indexed":false,"internalType":"uint256"},{"name":"lossProtection","type":"uint256","indexed":false,"internalType":"uint256"}],"anonymous":false},{"type":"event","name":"Initialized","inputs":[{"name":"version","type":"uint8","indexed":false,"internalType":"uint8"}],"anonymous":false},{"type":"event","name":"KeeperUpdated","inputs":[{"name":"keeper","type":"address","indexed":false,"internalType":"address"}],"anonymous":false},{"type":"event","name":"LiqThresholdUpdated","inputs":[{"name":"newThreshold","type":"uint256","indexed":false,"internalType":"uint256"}],"anonymous":false},{"type":"event","name":"LossProtectionConfigSet","inputs":[{"name":"numTiers","type":"uint256","indexed":false,"internalType":"uint256"},{"name":"longSkewConfig","type":"uint256[]","indexed":false,"internalType":"uint256[]"},{"name":"shortSkewConfig","type":"uint256[]","indexed":false,"internalType":"uint256[]"}],"anonymous":false},{"type":"event","name":"ManagerUpdated","inputs":[{"name":"value","type":"address","indexed":false,"internalType":"address"}],"anonymous":false},{"type":"event","name":"MaxNegativePnlOnOpenPUpdated","inputs":[{"name":"value","type":"uint256","indexed":false,"internalType":"uint256"}],"anonymous":false},{"type":"event","name":"MultiplierUpdated","inputs":[{"name":"minMultiplierRate","type":"uint256","indexed":false,"internalType":"uint256"},{"name":"maxMultiplierRate","type":"uint256","indexed":false,"internalType":"uint256"},{"name":"groupId","type":"uint256","indexed":false,"internalType":"uint256"}],"anonymous":false},{"type":"event","name":"OnePercentDepthUpdated","inputs":[{"name":"pairIndex","type":"uint256","indexed":false,"internalType":"uint256"},{"name":"valueAbove","type":"uint256","indexed":false,"internalType":"uint256"},{"name":"valueBelow","type":"uint256","indexed":false,"internalType":"uint256"}],"anonymous":false},{"type":"event","name":"PairParamsUpdated","inputs":[{"name":"pairIndex","type":"uint256","indexed":false,"internalType":"uint256"},{"name":"value","type":"tuple","indexed":false,"internalType":"struct IPairInfos.PairParams","components":[{"name":"onePercentDepthAbove","type":"uint256","internalType":"uint256"},{"name":"onePercentDepthBelow","type":"uint256","internalType":"uint256"},{"name":"rolloverFeePerBlockP","type":"uint256","internalType":"uint256"}]}],"anonymous":false},{"type":"event","name":"RolloverFeePerBlockPUpdated","inputs":[{"name":"pairIndex","type":"uint256","indexed":false,"internalType":"uint256"},{"name":"fee","type":"uint256","indexed":false,"internalType":"uint256"}],"anonymous":false},{"type":"event","name":"TradeInitialAccFeesStored","inputs":[{"name":"trader","type":"address","indexed":false,"internalType":"address"},{"name":"pairIndex","type":"uint256","indexed":false,"internalType":"uint256"},{"name":"index","type":"uint256","indexed":false,"internalType":"uint256"},{"name":"rollover","type":"uint256","indexed":false,"internalType":"uint256"}],"anonymous":false}],"bytecode":{"object":"0x60806040523480156200001157600080fd5b506200001c62000022565b620000e3565b600054610100900460ff16156200008f5760405162461bcd60e51b815260206004820152602760248201527f496e697469616c697a61626c653a20636f6e747261637420697320696e697469604482015266616c697a696e6760c81b606482015260840160405180910390fd5b60005460ff90811614620000e1576000805460ff191660ff9081179091556040519081527f7f26b83ff96e1f2b6a682f133852f6798a09c465da95921460cefb38474024989060200160405180910390a15b565b61509b80620000f36000396000f3fe608060405234801561001057600080fd5b50600436106102695760003560e01c806375923b9d11610151578063bf1db1f6116100c3578063d0ebdbe711610087578063d0ebdbe714610670578063eb95e10c14610683578063f696065414610696578063fcfe7378146106a9578063fdd3265f146106bc578063fe3cfd8c146106cf57600080fd5b8063bf1db1f6146105e8578063c21fbef814610617578063c9533ebc1461062a578063cf2befd21461063d578063cfc23e9e1461065057600080fd5b8063867a60c211610115578063867a60c21461056b578063890801de1461057e578063ab21a05c14610591578063aced1661146105b9578063ae2293d7146105cc578063b74243ba146105d557600080fd5b806375923b9d146104ff5780637d36dda8146105125780637d827137146105255780637ea95f321461054557806382d317b21461055857600080fd5b8063351533e7116101ea5780635ed5804e116101ae5780635ed5804e146104405780636676d850146104905780636a3ca5fd146104a35780636bc84d59146104b6578063726219f3146104c9578063748747e6146104ec57600080fd5b8063351533e7146103c557806335b03c17146103d857806342dee1ad146103eb578063481c6a751461041a578063485cc9551461042d57600080fd5b806316fff0741161023157806316fff0741461031b578063183566d41461034c5780631f4934a11461035f5780632b180a7d1461037f578063338139ad146103a257600080fd5b8063050982721461026e5780630b224e87146102945780630e0052fc146102c25780630e6bc39a146102e55780630ea77770146102fa575b600080fd5b61028161027c3660046146b8565b610710565b6040519081526020015b60405180910390f35b6102a76102a23660046149cd565b6107a1565b6040805193845260208401929092529082015260600161028b565b6102816102d0366004614a15565b60009081526006602052604090206002015490565b6102f86102f336600461466e565b6109e1565b005b61030d610308366004614804565b610b84565b60405161028b929190614ccd565b600054610334906201000090046001600160a01b031681565b6040516001600160a01b03909116815260200161028b565b61028161035a366004614bd8565b610d5e565b61028161036d366004614a15565b60086020526000908152604090205481565b61028161038d366004614a15565b60009081526005602052604090206001015490565b6102816103b0366004614a15565b60009081526005602052604090206002015490565b6102f86103d33660046148e0565b610d8f565b600154610334906001600160a01b031681565b6102a76103f9366004614a15565b60056020526000908152604090208054600182015460029092015490919083565b600254610334906001600160a01b031681565b6102f861043b366004614600565b610e71565b61047b61044e366004614639565b60076020908152600093845260408085208252928452828420905282529020805460019091015460ff1682565b6040805192835290151560208301520161028b565b61028161049e366004614ae0565b610fc2565b6102816104b1366004614bd8565b61135a565b6102816104c4366004614714565b611376565b6102816104d7366004614a15565b60009081526006602052604090206001015490565b6102f86104fa3660046145c6565b611399565b6102a761050d366004614b65565b6114e6565b610281610520366004614b1d565b6115ba565b610281610533366004614a15565b60009081526006602052604090205490565b610281610553366004614bfa565b61163e565b6102816105663660046149b0565b61178f565b6102f8610579366004614846565b611a33565b61028161058c366004614aa8565b611aee565b6105a461059f366004614a15565b611e19565b6040805192835260208301919091520161028b565b600354610334906001600160a01b031681565b61028160045481565b6102f86105e3366004614bd8565b612118565b6102a76105f6366004614a15565b60066020526000908152604090208054600182015460029092015490919083565b6102f8610625366004614a15565b6121dd565b610281610638366004614c39565b6122c8565b6102f861064b366004614a2e565b6124b2565b61028161065e366004614a15565b60009081526005602052604090205490565b6102f861067e3660046145c6565b61256f565b6102f8610691366004614ba0565b6126b5565b6102f86106a4366004614c39565b6126ed565b6102816106b7366004614aa8565b612740565b6102816106ca366004614c65565b612827565b6102816106dd366004614639565b6001600160a01b038316600090815260076020908152604080832085845282528083208484529091529020549392505050565b6001600160a01b0386166000908152600760209081526040808320888452825280832087845282528083208151808301909252805482526001015460ff16151591810182905290610765576000915050610797565b60008061077189611e19565b91509150610791836000015188610788578261078a565b835b8888612827565b93505050505b9695505050505050565b60008060008060029054906101000a90046001600160a01b03166001600160a01b031662b127836040518163ffffffff1660e01b815260040160206040518083038186803b1580156107f257600080fd5b505afa158015610806573d6000803e3d6000fd5b505050506040513d601f19601f8201168201806040525081019061082a91906145e3565b6001600160a01b0316336001600160a01b0316146108805760405162461bcd60e51b815260206004820152600e60248201526d43414c4c4241434b535f4f4e4c5960901b60448201526064015b60405180910390fd5b61088d8860200151612860565b60006108b189600001518a602001518b604001518c60c001518c8e60e00151610710565b60015460208b0151604051632b1cbe9d60e01b81529293506000926001600160a01b0390921691632b1cbe9d916108f5918a90600401918252602082015260400190565b60206040518083038186803b15801561090d57600080fd5b505afa158015610921573d6000803e3d6000fd5b505050506040513d601f19601f820116820180604052508101906109459190614997565b90506109548989848a856114e6565b60c08d015160e08e01516040519499509297509095507fb70bf101b761b8a0fe59428f8a894321d6639ef13ab81b9bf16d19764a7dba66926109cc928d918d9088908e9089909615158752602087019590955260408601939093526060850191909152608084015260a083015260c082015260e00190565b60405180910390a15050955095509592505050565b600060029054906101000a90046001600160a01b03166001600160a01b031662b127836040518163ffffffff1660e01b815260040160206040518083038186803b158015610a2e57600080fd5b505afa158015610a42573d6000803e3d6000fd5b505050506040513d601f19601f82011682018060405250810190610a6691906145e3565b6001600160a01b0316336001600160a01b031614610ab75760405162461bcd60e51b815260206004820152600e60248201526d43414c4c4241434b535f4f4e4c5960901b6044820152606401610877565b610ac083612860565b6001600160a01b03841660009081526007602090815260408083208684528252808320858452909152902081610b0757600084815260066020526040902060010154610b17565b6000848152600660205260409020545b8082556001808301805460ff19169091179055604080516001600160a01b03881681526020810187905290810185905260608101919091527f835af8708eb91d2079c09e00124475ffca3f81cbef1e074867d53e5c9ec0ed98906080015b60405180910390a15050505050565b60608060008367ffffffffffffffff811115610ba257610ba2615029565b604051908082528060200260200182016040528015610bf757816020015b610be460405180606001604052806000815260200160008152602001600081525090565b815260200190600190039081610bc05790505b50905060008467ffffffffffffffff811115610c1557610c15615029565b604051908082528060200260200182016040528015610c6a57816020015b610c5760405180606001604052806000815260200160008152602001600081525090565b815260200190600190039081610c335790505b50905060005b85811015610d50576000878783818110610c8c57610c8c615013565b905060200201359050600560008281526020019081526020016000206040518060600160405290816000820154815260200160018201548152602001600282015481525050848381518110610ce357610ce3615013565b6020026020010181905250600660008281526020019081526020016000206040518060600160405290816000820154815260200160018201548152602001600282015481525050838381518110610d3c57610d3c615013565b602090810291909101015250600101610c70565b5090925090505b9250929050565b600a6020528160005260406000208181548110610d7a57600080fd5b90600052602060002001600091509150505481565b6002546001600160a01b03163314610db95760405162461bcd60e51b815260040161087790614d80565b8483148015610dc757508481145b610e025760405162461bcd60e51b815260206004820152600c60248201526b0aea49e9c8ebe988a9c8ea8960a31b6044820152606401610877565b60005b85811015610e6857610e60878783818110610e2257610e22615013565b90506020020135868684818110610e3b57610e3b615013565b90506020020135858585818110610e5457610e54615013565b905060200201356128c3565b600101610e05565b50505050505050565b600054610100900460ff1615808015610e915750600054600160ff909116105b80610eab5750303b158015610eab575060005460ff166001145b610f0e5760405162461bcd60e51b815260206004820152602e60248201527f496e697469616c697a61626c653a20636f6e747261637420697320616c72656160448201526d191e481a5b9a5d1a585b1a5e995960921b6064820152608401610877565b6000805460ff191660011790558015610f31576000805461ff0019166101001790555b6000805462010000600160b01b031916620100006001600160a01b038681169190910291909117909155600180546001600160a01b03191691841691909117905560556004558015610fbd576000805461ff0019169055604051600181527f7f26b83ff96e1f2b6a682f133852f6798a09c465da95921460cefb38474024989060200160405180910390a15b505050565b6000610fce8284614e60565b610fda57506000611352565b600154604051633c44d0a360e01b8152600481018790526001600160a01b0390911690633c44d0a39060240160206040518083038186803b15801561101e57600080fd5b505afa158015611032573d6000803e3d6000fd5b505050506040513d601f19601f820116820180604052508101906110569190614997565b600214156112ff5760008060029054906101000a90046001600160a01b03166001600160a01b0316638ecf3f5a6040518163ffffffff1660e01b8152600401604080518083038186803b1580156110ac57600080fd5b505afa1580156110c0573d6000803e3d6000fd5b505050506040513d601f19601f820116820180604052508101906110e4919061477c565b90506000856110f45760016110f7565b60005b600154604051636dc37de360e01b8152600481018a905260ff92909216925060009184916001600160a01b031690636dc37de39060240160206040518083038186803b15801561114657600080fd5b505afa15801561115a573d6000803e3d6000fd5b505050506040513d601f19601f8201168201806040525081019061117e919061497a565b6111925761118d836001614f9d565b611194565b825b600281106111a4576111a4615013565b6020020151600154604051636dc37de360e01b8152600481018b905291925060009185916001600160a01b031690636dc37de39060240160206040518083038186803b1580156111f357600080fd5b505afa158015611207573d6000803e3d6000fd5b505050506040513d601f19601f8201168201806040525081019061122b919061497a565b6112355783611240565b611240846001614f9d565b6002811061125057611250615013565b6020020151905060006112638383614e60565b61126e846064614f3f565b6112789190614ea6565b90506000896112a55761128b888a614e60565b611296896064614f3f565b6112a09190614ea6565b6112c4565b6112af888a614e60565b6112ba8a6064614f3f565b6112c49190614ea6565b905060646112d3826019614f3f565b6112de84604b614f3f565b6112e89190614e60565b6112f29190614ea6565b9650505050505050611352565b60008461132a576113108385614e60565b61131b846064614f3f565b6113259190614ea6565b611349565b6113348385614e60565b61133f856064614f3f565b6113499190614ea6565b91506113529050565b949350505050565b60096020528160005260406000208181548110610d7a57600080fd5b600061138d858585856105208d8d8d8c8c8c610710565b98975050505050505050565b600060029054906101000a90046001600160a01b03166001600160a01b03166312d43a516040518163ffffffff1660e01b815260040160206040518083038186803b1580156113e757600080fd5b505afa1580156113fb573d6000803e3d6000fd5b505050506040513d601f19601f8201168201806040525081019061141f91906145e3565b6001600160a01b0316336001600160a01b03161461144f5760405162461bcd60e51b815260040161087790614da6565b6001600160a01b0381166114915760405162461bcd60e51b81526020600482015260096024820152682d22a927afa0a2222960b91b6044820152606401610877565b600380546001600160a01b0319166001600160a01b0383169081179091556040519081527f0425bcd291db1d48816f2a98edc7ecaf6dd5c64b973d9e4b3b6b750763dc6c2e906020015b60405180910390a150565b600080808060646402540be4006114fd8a8c614eba565b6115079190614e78565b6115119190614e78565b905060008112156115355760646115288683614eba565b6115329190614e78565b90505b60006115418789614e1f565b9050600081611550848d614e1f565b61155a9190614f5e565b90506064600454606461156d9190614f9d565b611577908d614eba565b6115819190614e78565b8113611597575060006115948b83614f5e565b92505b600081136115a65760006115a8565b805b9b929a50909850909650505050505050565b6000806115c78585612923565b836064600454886115d89190614f3f565b6115e29190614ea6565b6115ec9190614f5e565b6115f69089614eba565b6116009190614e78565b9050600086611618576116138289614e1f565b611622565b6116228289614f5e565b90506000811361163357600061138d565b979650505050505050565b60008061164c858585612740565b9050600061165b868686611aee565b60015460405163a1d54e9b60e01b815260048101899052919250600091839185916001600160a01b039091169063a1d54e9b9060240160206040518083038186803b1580156116a957600080fd5b505afa1580156116bd573d6000803e3d6000fd5b505050506040513d601f19601f820116820180604052508101906116e19190614997565b6116eb9190614e1f565b6116f59190614e1f565b9050611707600a6402540be400614ea6565b61171090614fb4565b811261171c5780611735565b61172c600a6402540be400614ea6565b61173590614fb4565b9050600060646402540be40061174b8b85614eba565b6117559190614e78565b61175f9190614e78565b905060008761177757611772828b614f5e565b611781565b611781828b614e1f565b9a9950505050505050505050565b600080546020830151604051639cb87f2360e01b815260048101919091526024810183905282916201000090046001600160a01b031690639cb87f239060440160206040518083038186803b1580156117e757600080fd5b505afa1580156117fb573d6000803e3d6000fd5b505050506040513d601f19601f8201168201806040525081019061181f9190614997565b600080546020860151604051639cb87f2360e01b81526004810191909152600160248201529293509091620100009091046001600160a01b031690639cb87f239060440160206040518083038186803b15801561187b57600080fd5b505afa15801561188f573d6000803e3d6000fd5b505050506040513d601f19601f820116820180604052508101906118b39190614997565b905060006118d28560e00151866060015161292390919063ffffffff16565b90508460c0015115611985576118e88184614e60565b925060006118f68385614e60565b611901846064614f3f565b61190b9190614ea6565b6020808801516000908152600a90915260409020549091505b801561197e576020808801516000908152600a90915260409020611949600183614f9d565b8154811061195957611959615013565b9060005260206000200154821061197557611633600182614f9d565b60001901611924565b5050611a28565b61198f8183614e60565b9150600061199d8385614e60565b6119a8856064614f3f565b6119b29190614ea6565b6020808801516000908152600990915260409020549091505b8015611a255760208088015160009081526009909152604090206119f0600183614f9d565b81548110611a0057611a00615013565b90600052602060002001548210611a1c57611633600182614f9d565b600019016119cb565b50505b506000949350505050565b6002546001600160a01b03163314611a5d5760405162461bcd60e51b815260040161087790614d80565b828114611a9b5760405162461bcd60e51b815260206004820152600c60248201526b0aea49e9c8ebe988a9c8ea8960a31b6044820152606401610877565b60005b83811015611ae757611adf858583818110611abb57611abb615013565b90506020020135848484818110611ad457611ad4615013565b905060600201612948565b600101611a9e565b5050505050565b600154604051633a2d43e160e21b8152600481018590526000916402540be4009183916001600160a01b03169063e8b50f849060240160206040518083038186803b158015611b3c57600080fd5b505afa158015611b50573d6000803e3d6000fd5b505050506040513d601f19601f82011682018060405250810190611b749190614997565b60008054604051639cb87f2360e01b8152600481018a9052602481018390529293509091620100009091046001600160a01b031690639cb87f239060440160206040518083038186803b158015611bca57600080fd5b505afa158015611bde573d6000803e3d6000fd5b505050506040513d601f19601f82011682018060405250810190611c029190614997565b60008054604051639cb87f2360e01b8152600481018b9052600160248201529293509091620100009091046001600160a01b031690639cb87f239060440160206040518083038186803b158015611c5857600080fd5b505afa158015611c6c573d6000803e3d6000fd5b505050506040513d601f19601f82011682018060405250810190611c909190614997565b905081611ca4576000945050505050611e12565b600087611cd057611cb58284614e60565b611cc183612710614f3f565b611ccb9190614ea6565b611cf0565b611cda8284614e60565b611ce684612710614f3f565b611cf09190614ea6565b9050600088611d335787611d048486614e60565b611d0e9190614e60565b611d188985614e60565b611d2490612710614f3f565b611d2e9190614ea6565b611d68565b87611d3e8486614e60565b611d489190614e60565b611d528986614e60565b611d5e90612710614f3f565b611d689190614ea6565b90506000611d89611d7b84612710614f9d565b6127106402540be4006129d0565b611d98611d7b84612710614f9d565b611daa856127106402540be4006129d0565b611dbc856127106402540be4006129d0565b611dc69190614f5e565b611dd09190614e1f565b611dda9190614f5e565b905086611de78288614eba565b611df19190614e78565b975086611dfe8288614eba565b611e089190614e78565b9750505050505050505b9392505050565b6000818152600660205260408082208054600182015484549351639cb87f2360e01b8152600481018790526024810186905291949093909182916201000090046001600160a01b031690639cb87f239060440160206040518083038186803b158015611e8457600080fd5b505afa158015611e98573d6000803e3d6000fd5b505050506040513d601f19601f82011682018060405250810190611ebc9190614997565b60008054604051639cb87f2360e01b8152600481018a9052600160248201529293509091620100009091046001600160a01b031690639cb87f239060440160206040518083038186803b158015611f1257600080fd5b505afa158015611f26573d6000803e3d6000fd5b505050506040513d601f19601f82011682018060405250810190611f4a9190614997565b9050811561203457611f5d8783836122c8565b92506000611f6e8860018585610fc2565b90506000611f7c8286614f3f565b611f8c6402540be4006064614f3f565b611f969190614f9d565b611fa08387614f3f565b611faf906402540be400614f3f565b611fb99190614ea6565b905060006402540be40080600560008d815260200190815260200160002060020154896002015443611feb9190614f9d565b611ffa6402540be40087614f3f565b6120049190614f3f565b61200e9190614f3f565b6120189190614ea6565b6120229190614ea6565b905061202e818a614e60565b98505050505b801561210f5760006120498860008585610fc2565b905060006120578286614f3f565b6120676402540be4006064614f3f565b6120719190614f9d565b61207b8387614f3f565b61208a906402540be400614f3f565b6120949190614ea6565b905060006402540be40080600560008d8152602001908152602001600020600201548960020154436120c69190614f9d565b6120d56402540be40087614f3f565b6120df9190614f3f565b6120e99190614f3f565b6120f39190614ea6565b6120fd9190614ea6565b90506121098189614e60565b97505050505b50505050915091565b6002546001600160a01b031633146121425760405162461bcd60e51b815260040161087790614d80565b63017d78408111156121815760405162461bcd60e51b81526020600482015260086024820152670a89e9ebe90928e960c31b6044820152606401610877565b61218a82612860565b60008281526005602090815260409182902060020183905581518481529081018390527f048ce436ab4f2632f2aac62af26be3383ebdf5efc9a63f0bbeb6d6c9762d708991015b60405180910390a15050565b600060029054906101000a90046001600160a01b03166001600160a01b03166312d43a516040518163ffffffff1660e01b815260040160206040518083038186803b15801561222b57600080fd5b505afa15801561223f573d6000803e3d6000fd5b505050506040513d601f19601f8201168201806040525081019061226391906145e3565b6001600160a01b0316336001600160a01b0316146122935760405162461bcd60e51b815260040161087790614da6565b60048190556040518181527fb7e4406c7dbd1b93965e7b215a33b02672c462728044a364e16b2b47d321aee0906020016114db565b60015460405163232683a960e21b81526004810185905260009182916001600160a01b0390911690638c9a0ea49060240160206040518083038186803b15801561231157600080fd5b505afa158015612325573d6000803e3d6000fd5b505050506040513d601f19601f820116820180604052508101906123499190614997565b600154604051635e4f8f5960e01b8152600481018890526402540be400916001600160a01b031690635e4f8f599060240160206040518083038186803b15801561239257600080fd5b505afa1580156123a6573d6000803e3d6000fd5b505050506040513d601f19601f820116820180604052508101906123ca9190614997565b6123d49190614f3f565b6123de9190614ea6565b600154604051635970d96b60e11b8152600481018890529192506000916001600160a01b039091169063b2e1b2d69060240160206040518083038186803b15801561242857600080fd5b505afa15801561243c573d6000803e3d6000fd5b505050506040513d601f19601f820116820180604052508101906124609190614997565b6402540be4006124708688614e60565b61247a9190614f3f565b6124849190614ea6565b90506064612493826019614f3f565b61249e84604b614f3f565b6124a89190614e60565b6107979190614ea6565b6002546001600160a01b031633146124dc5760405162461bcd60e51b815260040161087790614d80565b8281146124e857600080fd5b60008581526008602090815260408083208690556009909152902061250e90858561446c565b506000858152600a6020526040902061252890838361446c565b50600085815260086020526040908190205490517f7441144ceb286becc54eb23d4ba7d881ec8f99733a2ef397bcefc8a89bb5bd7891610b75918790879087908790614dc8565b600060029054906101000a90046001600160a01b03166001600160a01b03166312d43a516040518163ffffffff1660e01b815260040160206040518083038186803b1580156125bd57600080fd5b505afa1580156125d1573d6000803e3d6000fd5b505050506040513d601f19601f820116820180604052508101906125f591906145e3565b6001600160a01b0316336001600160a01b0316146126255760405162461bcd60e51b815260040161087790614da6565b6001600160a01b0381166126675760405162461bcd60e51b81526020600482015260096024820152682d22a927afa0a2222960b91b6044820152606401610877565b600280546001600160a01b0319166001600160a01b0383169081179091556040519081527f2c1c11af44aa5608f1dca38c00275c30ea091e02417d36e70e9a1538689c433d906020016114db565b6002546001600160a01b031633146126df5760405162461bcd60e51b815260040161087790614d80565b6126e98282612948565b5050565b6003546001600160a01b031633146127355760405162461bcd60e51b815260206004820152600b60248201526a4b45455045525f4f4e4c5960a81b6044820152606401610877565b610fbd8383836128c3565b600154604051630bf919a560e31b81526004810185905260009182916001600160a01b0390911690635fc8cd289060240160206040518083038186803b15801561278957600080fd5b505afa15801561279d573d6000803e3d6000fd5b505050506040513d601f19601f820116820180604052508101906127c19190614997565b90506000846127e1576000868152600560205260409020600101546127f1565b6000868152600560205260409020545b90506402540be40061281d816128078786614f3f565b6128119190614ea6565b836402540be4006129d0565b6107979190614f5e565b60006402540be4006128398484612923565b6128438787614f9d565b61284d9190614f3f565b6128579190614ea6565b95945050505050565b600081815260066020526040902061287782611e19565b600183018190558183554360028401556040805185815260208101939093528201527fda1d5f1f1aab631c047218e2f5f973b6c12729f4181103a91459dda3d1603c38906060016121d1565b6000838152600560209081526040918290208481556001810184905582518681529182018590529181018390527f1daeaff85d4d7cfda495ef83720a04b81df77e38711ca570061e16efa6ffa2759060600160405180910390a150505050565b60006402540be4006129358385614f3f565b61293f9190614ea6565b90505b92915050565b61295182612860565b6000828152600560205260409020819061298282828135815560208201356001820155604082013560028201555050565b5050604080518381528235602080830191909152830135818301529082013560608201527fa25aa2e7710f36dc1fc81eae36e26c3554faca8ba5af724112efee783e2f75ee906080016121d1565b6000806129dc85612a32565b905060006129e985612a32565b905060006129f78383612a9b565b90506000612a0482612d53565b90506000612a1a82612a1589612a32565b612d7a565b9050612a2581612fd5565b9998505050505050505050565b600081612a4157506000919050565b816000612a4d8261307c565b90506070811015612a66578060700382901b9150612a79565b6070811115612a79576070810382901c91505b613fff0160701b6001600160701b03919091161760801b92915050565b919050565b6000617fff60f084811c8216919084901c811690821415612ae15780617fff1415612ad0575061ffff60ef1b91506129429050565b505050600160ff1b81168218612942565b80617fff1415612b25576dffffffffffffffffffffffffffff60801b841615612b14575061ffff60ef1b91506129429050565b505050808218600160ff1b16612942565b600160801b600160ff1b038416612b6f57600160801b600160ff1b038516612b57575061ffff60ef1b91506129429050565b505050808218600160ff1b16617fff60f01b17612942565b6001600160701b03608085901c1681612b8b5760019150612b92565b600160701b175b6001600160701b03608087901c1683612bd1578015612bcc576000612bb68261307c565b6001955060e20393840160711901939190911b90505b612bdb565b600160701b1760721b5b818181612bea57612bea614ffd565b04905080612c1757600160ff1b87871816612c06576000612c0c565b600160ff1b5b945050505050612942565b6001606c1b811015612c2b57612c2b614fd1565b6000600160731b821015612c6a57600160721b821015612c5f57600160711b821015612c58576070612c62565b6071612c62565b60725b60ff16612c73565b612c738261307c565b905083614071018186011115612c9157617fff945060009150612d24565b83818601613ffc011015612cac576000945060009150612d24565b83818601613f8c011015612cf9578385613ffc011115612cd7578385613ffc010382901b9150612cf0565b8385613ffc011015612cf057613ffc8585030382901c91505b60009450612d24565b6070811115612d0c576070810382901c91505b6001600160701b038216915083818601613f8d010394505b81607086901b888a186001607f1b60801b1660801c6001600160801b0316171760801b95505050505050612942565b6000612942612d75836f1fffb8aa3b295c17f0bbbe87fed0691d60811b612d7a565b61311a565b6000617fff60f084811c8216919084901c811690821415612e195780617fff1415612df8576001600160801b03198581169085161415612dc557505050600160ff1b81168218612942565b600160ff1b6001600160801b0319868618161415612de857505050818117612942565b5061ffff60ef1b91506129429050565b600160801b600160ff1b038416612ad0575061ffff60ef1b91506129429050565b80617fff1415612e5557600160801b600160ff1b038516612e44575061ffff60ef1b91506129429050565b505050600160ff1b82168118612942565b6001600160701b03608086901c1682612e715760019250612e78565b600160701b175b6001600160701b03608086901c1682612e945760019250612e9b565b600160701b175b9081029081612eb857600160ff1b87871816612c06576000612c0c565b928201926000600160e11b831015612eeb57600160e01b831015612ee457612edf8361307c565b612eee565b60e0612eee565b60e15b90506140708186011015612f09576000945060009250612fa6565b6140e08186011015612f4c57614070851015612f2e57846140700383901c9250612f43565b614070851115612f4357614070850383901b92505b60009450612fa6565b61c0dd8186011115612f6657617fff945060009250612fa6565b6070811115612f7d576070810383901c9250612f90565b6070811015612f90578060700383901b92505b6001600160701b03831692506140df8186010394505b82607086901b888a186001607f1b60801b1660801c6001600160801b0316171760801b95505050505050612942565b6000617fff60f083901c166140fe811115612fef57600080fd5b613fff8110156130025750600092915050565b600160701b6001600160701b03608085901c161761406f82101561302c5761406f8290031c61303e565b61406f82111561303e5761406e1982011b5b6001607f1b608085901c1061306857600160ff1b81111561305e57600080fd5b6000039392505050565b6001600160ff1b03811115611e1257600080fd5b600080821161308a57600080fd5b6000600160801b831061309f57608092831c92015b600160401b83106130b257604092831c92015b64010000000083106130c657602092831c92015b6201000083106130d857601092831c92015b61010083106130e957600892831c92015b601083106130f957600492831c92015b6004831061310957600292831c92015b600283106129425760010192915050565b60006001607f1b608083901c90811190617fff60f085901c8116916001600160701b0316908214801561314c57508015155b15613160575061ffff60ef1b949350505050565b61400d821115613185578261317a57617fff60f01b612857565b600095945050505050565b613f7f82101561319e5750613fff60f01b949350505050565b816131ac57600191506131b3565b600160701b175b613fef8211156131c957613fee1982011b6131db565b613fef8210156131db57613fef8290031c5b8280156131ec575061203760811b81115b156131fc57506000949350505050565b8215801561321b5750713fffffffffffffffffffffffffffffffffff81115b1561322f5750617fff60f01b949350505050565b6001600160801b0381169060801c83801561324957508115155b15613255579019906001015b6001607f1b828116156132795770016a09e667f3bcc908b2fb1366ea957d3e0260801c5b6001607e1b83161561329c577001306fe0a31b7152de8d5a46305c85edec0260801c5b6001607d1b8316156132bf577001172b83c7d517adcdf7c8c50eb14a791f0260801c5b6001607c1b8316156132e25770010b5586cf9890f6298b92b71842a983630260801c5b6001607b1b831615613305577001059b0d31585743ae7c548eb68ca417fd0260801c5b6001607a1b83161561332857700102c9a3e778060ee6f7caca4f7a29bde80260801c5b600160791b83161561334b5770010163da9fb33356d84a66ae336dcdfa3f0260801c5b600160781b83161561336e57700100b1afa5abcbed6129ab13ec11dc95430260801c5b600160771b8316156133915770010058c86da1c09ea1ff19d294cf2f679b0260801c5b600160761b8316156133b4577001002c605e2e8cec506d21bfc89a23a00f0260801c5b600160751b8316156133d757700100162f3904051fa128bca9c55c31e5df0260801c5b600160741b8316156133fa577001000b175effdc76ba38e31671ca9397250260801c5b600160731b83161561341d57700100058ba01fb9f96d6cacd4b180917c3d0260801c5b600160721b8316156134405770010002c5cc37da9491d0985c348c68e7b30260801c5b600160711b831615613463577001000162e525ee054754457d59952920260260801c5b600160701b8316156134865770010000b17255775c040618bf4a4ade83fc0260801c5b6001606f1b8316156134a9577001000058b91b5bc9ae2eed81e9b7d4cfab0260801c5b6001606e1b8316156134cc57700100002c5c89d5ec6ca4d7c8acc017b7c90260801c5b6001606d1b8316156134ef5770010000162e43f4f831060e02d839a9d16d0260801c5b6001606c1b83161561351257700100000b1721bcfc99d9f890ea069117630260801c5b6001606b1b8316156135355770010000058b90cf1e6d97f9ca14dbcc16280260801c5b6001606a1b831615613558577001000002c5c863b73f016468f6bac5ca2b0260801c5b600160691b83161561357b57700100000162e430e5a18f6119e3c02282a50260801c5b600160681b83161561359e577001000000b1721835514b86e6d96efd1bfe0260801c5b600160671b8316156135c157700100000058b90c0b48c6be5df846c5b2ef0260801c5b600160661b8316156135e45770010000002c5c8601cc6b9e94213c72737a0260801c5b600160651b831615613607577001000000162e42fff037df38aa2b219f060260801c5b600160641b83161561362a5770010000000b17217fba9c739aa5819f44f90260801c5b600160631b83161561364d577001000000058b90bfcdee5acd3c1cedc8230260801c5b600160621b83161561367057700100000002c5c85fe31f35a6a30da1be500260801c5b600160611b8316156136935770010000000162e42ff0999ce3541b9fffcf0260801c5b600160601b8316156136b657700100000000b17217f80f4ef5aadda455540260801c5b6001605f1b8316156136d95770010000000058b90bfbf8479bd5a81b51ad0260801c5b6001605e1b8316156136fc577001000000002c5c85fdf84bd62ae30a74cc0260801c5b6001605d1b83161561371f57700100000000162e42fefb2fed257559bdaa0260801c5b6001605c1b831615613742577001000000000b17217f7d5a7716bba4a9ae0260801c5b6001605b1b83161561376557700100000000058b90bfbe9ddbac5e109cce0260801c5b6001605a1b8316156137885770010000000002c5c85fdf4b15de6f17eb0d0260801c5b600160591b8316156137ab577001000000000162e42fefa494f1478fde050260801c5b600160581b8316156137ce5770010000000000b17217f7d20cf927c8e94c0260801c5b600160571b8316156137f1577001000000000058b90bfbe8f71cb4e4b33d0260801c5b600160561b83161561381457700100000000002c5c85fdf477b662b269450260801c5b600160551b8316156138375770010000000000162e42fefa3ae53369388c0260801c5b600160541b83161561385a57700100000000000b17217f7d1d351a389d400260801c5b600160531b83161561387d5770010000000000058b90bfbe8e8b2d3d4ede0260801c5b600160521b8316156138a0577001000000000002c5c85fdf4741bea6e77e0260801c5b600160511b8316156138c357700100000000000162e42fefa39fe95583c20260801c5b600160501b8316156138e6577001000000000000b17217f7d1cfb72b45e10260801c5b698000000000000000000083161561390f57700100000000000058b90bfbe8e7cc35c3f00260801c5b69400000000000000000008316156139385770010000000000002c5c85fdf473e242ea380260801c5b6920000000000000000000831615613961577001000000000000162e42fefa39f02b772c0260801c5b691000000000000000000083161561398a5770010000000000000b17217f7d1cf7d83c1a0260801c5b69080000000000000000008316156139b3577001000000000000058b90bfbe8e7bdcbe2e0260801c5b69040000000000000000008316156139dc57700100000000000002c5c85fdf473dea871f0260801c5b6902000000000000000000831615613a055770010000000000000162e42fefa39ef44d910260801c5b6901000000000000000000831615613a2e57700100000000000000b17217f7d1cf79e9490260801c5b68800000000000000000831615613a565770010000000000000058b90bfbe8e7bce5440260801c5b68400000000000000000831615613a7e577001000000000000002c5c85fdf473de6eca0260801c5b68200000000000000000831615613aa657700100000000000000162e42fefa39ef366f0260801c5b68100000000000000000831615613ace577001000000000000000b17217f7d1cf79afa0260801c5b68080000000000000000831615613af657700100000000000000058b90bfbe8e7bcd6d0260801c5b68040000000000000000831615613b1e5770010000000000000002c5c85fdf473de6b20260801c5b68020000000000000000831615613b46577001000000000000000162e42fefa39ef3580260801c5b600160401b831615613b695770010000000000000000b17217f7d1cf79ab0260801c5b678000000000000000831615613b90577001000000000000000058b90bfbe8e7bcd50260801c5b674000000000000000831615613bb757700100000000000000002c5c85fdf473de6a0260801c5b672000000000000000831615613bde5770010000000000000000162e42fefa39ef340260801c5b671000000000000000831615613c0557700100000000000000000b17217f7d1cf7990260801c5b670800000000000000831615613c2c5770010000000000000000058b90bfbe8e7bcc0260801c5b670400000000000000831615613c53577001000000000000000002c5c85fdf473de50260801c5b670200000000000000831615613c7a57700100000000000000000162e42fefa39ef20260801c5b670100000000000000831615613ca1577001000000000000000000b17217f7d1cf780260801c5b6680000000000000831615613cc757700100000000000000000058b90bfbe8e7bb0260801c5b6640000000000000831615613ced5770010000000000000000002c5c85fdf473dd0260801c5b6620000000000000831615613d13577001000000000000000000162e42fefa39ee0260801c5b6610000000000000831615613d395770010000000000000000000b17217f7d1cf60260801c5b6608000000000000831615613d5f577001000000000000000000058b90bfbe8e7a0260801c5b6604000000000000831615613d8557700100000000000000000002c5c85fdf473c0260801c5b6602000000000000831615613dab5770010000000000000000000162e42fefa39d0260801c5b6601000000000000831615613dd157700100000000000000000000b17217f7d1ce0260801c5b65800000000000831615613df65770010000000000000000000058b90bfbe8e60260801c5b65400000000000831615613e1b577001000000000000000000002c5c85fdf4720260801c5b65200000000000831615613e4057700100000000000000000000162e42fefa380260801c5b65100000000000831615613e65577001000000000000000000000b17217f7d1b0260801c5b65080000000000831615613e8a57700100000000000000000000058b90bfbe8d0260801c5b65040000000000831615613eaf5770010000000000000000000002c5c85fdf460260801c5b65020000000000831615613ed4577001000000000000000000000162e42fefa20260801c5b65010000000000831615613ef95770010000000000000000000000b17217f7d00260801c5b648000000000831615613f1d577001000000000000000000000058b90bfbe70260801c5b644000000000831615613f4157700100000000000000000000002c5c85fdf30260801c5b642000000000831615613f655770010000000000000000000000162e42fef90260801c5b641000000000831615613f8957700100000000000000000000000b17217f7c0260801c5b640800000000831615613fad5770010000000000000000000000058b90bfbd0260801c5b640400000000831615613fd1577001000000000000000000000002c5c85fde0260801c5b640200000000831615613ff557700100000000000000000000000162e42fee0260801c5b640100000000831615614019577001000000000000000000000000b17217f60260801c5b638000000083161561403c57700100000000000000000000000058b90bfa0260801c5b634000000083161561405f5770010000000000000000000000002c5c85fc0260801c5b6320000000831615614082577001000000000000000000000000162e42fd0260801c5b63100000008316156140a55770010000000000000000000000000b17217e0260801c5b63080000008316156140c8577001000000000000000000000000058b90be0260801c5b63040000008316156140eb57700100000000000000000000000002c5c85e0260801c5b630200000083161561410e5770010000000000000000000000000162e42e0260801c5b630100000083161561413157700100000000000000000000000000b172160260801c5b628000008316156141535770010000000000000000000000000058b90a0260801c5b62400000831615614175577001000000000000000000000000002c5c840260801c5b6220000083161561419757700100000000000000000000000000162e410260801c5b621000008316156141b9577001000000000000000000000000000b17200260801c5b620800008316156141db57700100000000000000000000000000058b8f0260801c5b620400008316156141fd5770010000000000000000000000000002c5c70260801c5b6202000083161561421f577001000000000000000000000000000162e30260801c5b620100008316156142415770010000000000000000000000000000b1710260801c5b618000831615614262577001000000000000000000000000000058b80260801c5b61400083161561428357700100000000000000000000000000002c5b0260801c5b6120008316156142a45770010000000000000000000000000000162d0260801c5b6110008316156142c557700100000000000000000000000000000b160260801c5b6108008316156142e65770010000000000000000000000000000058a0260801c5b610400831615614307577001000000000000000000000000000002c40260801c5b610200831615614328577001000000000000000000000000000001610260801c5b610100831615614349577001000000000000000000000000000000b00260801c5b6080831615614369577001000000000000000000000000000000570260801c5b60408316156143895770010000000000000000000000000000002b0260801c5b60208316156143a9577001000000000000000000000000000000150260801c5b60108316156143c95770010000000000000000000000000000000a0260801c5b60088316156143e9577001000000000000000000000000000000040260801c5b6004831615614409577001000000000000000000000000000000010260801c5b8461442a57600f81901c6001600160701b03169050613fff82019150614459565b613ffe821161444f57600f81901c6001600160701b0316905081613fff039150614459565b600091613fee19011c5b60709190911b1760801b95945050505050565b8280548282559060005260206000209081019282156144a7579160200282015b828111156144a757823582559160200191906001019061448c565b506144b39291506144b7565b5090565b5b808211156144b357600081556001016144b8565b8035612a968161503f565b60008083601f8401126144e957600080fd5b50813567ffffffffffffffff81111561450157600080fd5b6020830191508360208260051b8501011115610d5757600080fd5b8035612a9681615057565b6000610160828403121561453a57600080fd5b614542614df5565b905061454d826144cc565b81526020820135602082015260408201356040820152606082013560608201526080820135608082015260a082013560a082015261458d60c0830161451c565b60c082015260e082013560e082015261010080830135818301525061012080830135818301525061014080830135818301525092915050565b6000602082840312156145d857600080fd5b8135611e128161503f565b6000602082840312156145f557600080fd5b8151611e128161503f565b6000806040838503121561461357600080fd5b823561461e8161503f565b9150602083013561462e8161503f565b809150509250929050565b60008060006060848603121561464e57600080fd5b83356146598161503f565b95602085013595506040909401359392505050565b6000806000806080858703121561468457600080fd5b843561468f8161503f565b9350602085013592506040850135915060608501356146ad81615057565b939692955090935050565b60008060008060008060c087890312156146d157600080fd5b86356146dc8161503f565b9550602087013594506040870135935060608701356146fa81615057565b9598949750929560808101359460a0909101359350915050565b600080600080600080600060e0888a03121561472f57600080fd5b873561473a8161503f565b9650602088013595506040880135945060608801359350608088013561475f81615057565b9699959850939692959460a0840135945060c09093013592915050565b60006040828403121561478e57600080fd5b82601f83011261479d57600080fd5b6040516040810181811067ffffffffffffffff821117156147c0576147c0615029565b80604052508083856040860111156147d757600080fd5b60005b60028110156147f95781518352602092830192909101906001016147da565b509195945050505050565b6000806020838503121561481757600080fd5b823567ffffffffffffffff81111561482e57600080fd5b61483a858286016144d7565b90969095509350505050565b6000806000806040858703121561485c57600080fd5b843567ffffffffffffffff8082111561487457600080fd5b614880888389016144d7565b9096509450602087013591508082111561489957600080fd5b818701915087601f8301126148ad57600080fd5b8135818111156148bc57600080fd5b8860206060830285010111156148d157600080fd5b95989497505060200194505050565b600080600080600080606087890312156148f957600080fd5b863567ffffffffffffffff8082111561491157600080fd5b61491d8a838b016144d7565b9098509650602089013591508082111561493657600080fd5b6149428a838b016144d7565b9096509450604089013591508082111561495b57600080fd5b5061496889828a016144d7565b979a9699509497509295939492505050565b60006020828403121561498c57600080fd5b8151611e1281615057565b6000602082840312156149a957600080fd5b5051919050565b600061016082840312156149c357600080fd5b61293f8383614527565b60008060008060006101e086880312156149e657600080fd5b6149f08787614527565b976101608701359750610180870135966101a081013596506101c00135945092505050565b600060208284031215614a2757600080fd5b5035919050565b600080600080600060608688031215614a4657600080fd5b85359450602086013567ffffffffffffffff80821115614a6557600080fd5b614a7189838a016144d7565b90965094506040880135915080821115614a8a57600080fd5b50614a97888289016144d7565b969995985093965092949392505050565b600080600060608486031215614abd57600080fd5b833592506020840135614acf81615057565b929592945050506040919091013590565b60008060008060808587031215614af657600080fd5b843593506020850135614b0881615057565b93969395505050506040820135916060013590565b600080600080600060a08688031215614b3557600080fd5b853594506020860135614b4781615057565b94979496505050506040830135926060810135926080909101359150565b600080600080600060a08688031215614b7d57600080fd5b505083359560208501359550604085013594606081013594506080013592509050565b6000808284036080811215614bb457600080fd5b833592506060601f1982011215614bca57600080fd5b506020830190509250929050565b60008060408385031215614beb57600080fd5b50508035926020909101359150565b60008060008060808587031215614c1057600080fd5b84359350602085013592506040850135614c2981615057565b9396929550929360600135925050565b600080600060608486031215614c4e57600080fd5b505081359360208301359350604090920135919050565b60008060008060808587031215614c7b57600080fd5b5050823594602084013594506040840135936060013592509050565b81835260006001600160fb1b03831115614cb057600080fd5b8260051b8083602087013760009401602001938452509192915050565b60408082528351908201819052600090606090818401906020808801855b83811015614d2257614d128583518051825260208082015190830152604090810151910152565b9385019390820190600101614ceb565b5050858303818701528651808452878201938201925060005b81811015614d7257614d628486518051825260208082015190830152604090810151910152565b9382019392850192600101614d3b565b509198975050505050505050565b6020808252600c908201526b4d414e414745525f4f4e4c5960a01b604082015260600190565b602080825260089082015267474f565f4f4e4c5960c01b604082015260600190565b858152606060208201526000614de2606083018688614c97565b828103604084015261138d818587614c97565b604051610160810167ffffffffffffffff81118282101715614e1957614e19615029565b60405290565b600080821280156001600160ff1b0384900385131615614e4157614e41614fe7565b600160ff1b8390038412811615614e5a57614e5a614fe7565b50500190565b60008219821115614e7357614e73614fe7565b500190565b600082614e8757614e87614ffd565b600160ff1b821460001984141615614ea157614ea1614fe7565b500590565b600082614eb557614eb5614ffd565b500490565b60006001600160ff1b0381841382841380821686840486111615614ee057614ee0614fe7565b600160ff1b6000871282811687830589121615614eff57614eff614fe7565b60008712925087820587128484161615614f1b57614f1b614fe7565b87850587128184161615614f3157614f31614fe7565b505050929093029392505050565b6000816000190483118215151615614f5957614f59614fe7565b500290565b60008083128015600160ff1b850184121615614f7c57614f7c614fe7565b6001600160ff1b0384018313811615614f9757614f97614fe7565b50500390565b600082821015614faf57614faf614fe7565b500390565b6000600160ff1b821415614fca57614fca614fe7565b5060000390565b634e487b7160e01b600052600160045260246000fd5b634e487b7160e01b600052601160045260246000fd5b634e487b7160e01b600052601260045260246000fd5b634e487b7160e01b600052603260045260246000fd5b634e487b7160e01b600052604160045260246000fd5b6001600160a01b038116811461505457600080fd5b50565b801515811461505457600080fdfea264697066735822122059b2cb91d1ced5ee770aa94fc81ee91aa5269e8fc51988d7fbda90d4224b1d6b64736f6c63430008070033","linkReferences":{}},"methodIdentifiers":{"getAccRolloverFeesLong(uint256)":"7d827137","getAccRolloverFeesShort(uint256)":"726219f3","getAccRolloverFeesUpdateBlock(uint256)":"0e0052fc","getBlendedSkew(uint256,bool,uint256,uint256)":"6676d850","getBlendedUtilizationRatio(uint256,uint256,uint256)":"c9533ebc","getOnePercentDepthAbove(uint256)":"cfc23e9e","getOnePercentDepthBelow(uint256)":"2b180a7d","getPairInfos(uint256[])":"0ea77770","getPendingAccRolloverFees(uint256)":"ab21a05c","getPriceImpactSpread(uint256,bool,uint256)":"fcfe7378","getRolloverFeePerBlockP(uint256)":"338139ad","getSkewImpactSpread(uint256,bool,uint256)":"890801de","getTradeInitialAccRolloverFeesPerCollateral(address,uint256,uint256)":"fe3cfd8c","getTradeLiquidationPrice(address,uint256,uint256,uint256,bool,uint256,uint256)":"6bc84d59","getTradeLiquidationPricePure(uint256,bool,uint256,uint256,uint256)":"7d36dda8","getTradePriceImpact(uint256,uint256,bool,uint256)":"7ea95f32","getTradeRolloverFee(address,uint256,uint256,bool,uint256,uint256)":"05098272","getTradeRolloverFeePure(uint256,uint256,uint256,uint256)":"fdd3265f","getTradeValue((address,uint256,uint256,uint256,uint256,uint256,bool,uint256,uint256,uint256,uint256),uint256,int256,uint256,uint256)":"0b224e87","getTradeValuePure(uint256,int256,uint256,uint256,uint256)":"75923b9d","initialize(address,address)":"485cc955","keeper()":"aced1661","liqThreshold()":"ae2293d7","longSkewConfig(uint256,uint256)":"6a3ca5fd","lossProtectionNumTiers(uint256)":"1f4934a1","lossProtectionTier((address,uint256,uint256,uint256,uint256,uint256,bool,uint256,uint256,uint256,uint256))":"82d317b2","manager()":"481c6a75","pairParams(uint256)":"42dee1ad","pairRolloverFees(uint256)":"bf1db1f6","pairsStorage()":"35b03c17","setKeeper(address)":"748747e6","setLossProtectionConfig(uint256,uint256[],uint256[])":"cf2befd2","setManager(address)":"d0ebdbe7","setOnePercentDepth(uint256,uint256,uint256)":"f6960654","setOnePercentDepthArray(uint256[],uint256[],uint256[])":"351533e7","setPairParams(uint256,(uint256,uint256,uint256))":"eb95e10c","setPairParamsArray(uint256[],(uint256,uint256,uint256)[])":"867a60c2","setRolloverFeePerBlockP(uint256,uint256)":"b74243ba","shortSkewConfig(uint256,uint256)":"183566d4","storageT()":"16fff074","storeTradeInitialAccFees(address,uint256,uint256,bool)":"0e6bc39a","tradeInitialAccFees(address,uint256,uint256)":"5ed5804e","udpateLiquidationThreshold(uint256)":"c21fbef8"},"id":104}